:020000040800F2
:100000008006002089010008910100089301000882
:100010009501000897010008990100080000000000
:100020000000000000000000000000009B0100082C
:100030009D010008000000009F010008490400081D
:10004000A3010008A3010008A3010008A301000800
:10005000A3010008A3010008A3010008A3010008F0
:10006000A3010008A3010008A3010008A3010008E0
:10007000A3010008A3010008A3010008A3010008D0
:10008000A3010008A3010008A3010008A3010008C0
:10009000A3010008A3010008A3010008A3010008B0
:1000A000A3010008A3010008A3010008A3010008A0
:1000B000A3010008A3010008A3010008A301000890
:1000C000A3010008A3010008A3010008A301000880
:1000D000A3010008A3010008A3010008A301000870
:1000E000A3010008A3010008A301000800F002F822
:1000F00000F03AF80AA090E8000C82448344AAF188
:100100000107DA4501D100F02FF8AFF2090EBAE885
:100110000F0013F0010F18BFFB1A43F0010318473B
:100120007C0500009C050000103A24BF78C878C107
:10013000FAD8520724BF30C830C144BF04680C60ED
:10014000704700000023002400250026103A28BF35
:1001500078C1FBD8520728BF30C148BF0B60704739
:100160001FB51FBD10B510BD00F036F81146FFF7E2
:10017000F7FF00F0EBF900F054F803B4FFF7F2FFDB
:1001800003BC00F057F800000948804709480047C1
:10019000FEE7FEE7FEE7FEE7FEE7FEE7FEE7FEE737
:1001A000FEE7FEE704480549054A064B7047000094
:1001B00059040008ED00000880000020800600209F
:1001C00080020020800200207047704770470000C6
:1001D00000487047200000207546FFF7F9FFAE4643
:1001E00005006946534620F00700854618B020B543
:1001F000FFF7D8FFBDE820404FF000064FF00007A2
:100200004FF000084FF0000B21F00701AC46ACE8BE
:10021000C009ACE8C009ACE8C009ACE8C0098D462B
:10022000704710B50446AFF300802046BDE810408B
:10023000FFF7A3BF01491820ABBEFEE7260002006E
:10024000704700000D48806940F004000B49886148
:100250000B48006800200A4908600846006848F614
:10026000880108430649086005480C30006840F0E2
:100270000F0003490C310860704700000010024075
:10028000000801400848806940F00800064988617C
:10029000064800680020054908600846006840F0EC
:1002A000113008607047000000100240000C01404F
:1002B00000214FF08042918400BF4FF08041898C33
:1002C0008142FAD37047000000BF044909688142A7
:1002D000FBD30021014A1160704700000800002094
:1002E00070B50546002405E0044804602846FFF781
:1002F000EBFF641CFF2CF7DD70BD00000C0C01400F
:1003000010B500F001F810BD0CB500200190009070
:100310003348006840F480303149086000BF3048FD
:10032000006800F4003000900198401C0190009893
:1003300018B90198B0F5A06FF1D12948006800F410
:10034000003010B10120009001E0002000900098E2
:10035000012843D12348006840F01000214908607B
:100360000846006820F0070008600846006840F072
:10037000020008601A484068194948600846406809
:1003800048600846406840F480604860084640681D
:1003900020F47C1048600846406840F4E81048604B
:1003A0000846006840F08070086000BF0C48006894
:1003B00000F000700028F9D00948406820F00300E0
:1003C000074948600846406840F00200486000BFA6
:1003D0000348406800F00C000828F9D10CBD00006B
:1003E000001002400020024010B50446002307E040
:1003F0000548C05C054908602046FFF759FF5B1CB3
:10040000B52BF5DB10BD0000E40500080C0C014025
:1004100070B50446002506E0FF200A490860600820
:10042000FFF752FF6D1CFF2DF6DDFF2506E00020D3
:10043000044908606008FFF747FF6D1E002DF6DADB
:1004400070BD00000C0C014002480068401C0149CE
:10045000086070470800002010B51348006840F09D
:1004600001001149086008464068104908400E49DB
:100470004860084600680E4908400B490860084675
:10048000006820F4802008600846406820F4FE00E0
:1004900048604FF41F008860FFF732FF4FF00060A4
:1004A0000449086010BD0000001002400000FFF881
:1004B000FFFFF6FE08ED00E00D48C06940F00100C6
:1004C0000B49C8618804808D4FF6FF7108434FF0D7
:1004D00080418885472008850846008840F0010053
:1004E00008800846808A40F001008882704700003A
:1004F0000010024010B50346002405E009480460DE
:100500005808FFF7D5FE641CFF2CF7DDFF2405E03B
:10051000044804605808FFF7CBFE641E002CF7DA8D
:1005200010BD00000C0C0140064800680649B0FBF5
:10053000F1F04FF0E02148610846006940F0070003
:10054000086170470C00002040190100FFF7ECFF24
:10055000FFF77AFFFFF776FEFFF794FEFFF7ACFF99
:100560003AE01E48006800F0010010B900201C4964
:1005700008601A48006800F0020010B9012018490C
:1005800008601648006800F0040010B90220144901
:1005900008601248006800F0080010B903201049F4
:1005A00008600F48006830B1012808D002280AD03E
:1005B000032810D10BE0C820FFF716FF0BE0C8207E
:1005C000FFF798FF07E0C820FFF722FF03E0C820ED
:1005D000FFF786FE00BF00BFC3E700000808014028
:1005E000000000208084898D92969B9FA3A8ACB0C8
:1005F000B4B8BCC0C4C8CBCFD2D6D9DCDFE2E5E802
:10060000EAEDEFF1F3F5F7F8FAFBFCFDFEFEFFFF74
:10061000FFFFFFFFFFFFFEFDFCFBFAF8F7F5F3F12C
:10062000EFEDEAE8E5E2DFDCD9D6D2CFCBC8C4C033
:10063000BCB8B4B0ACA8A39F9B96928D8984807CF3
:1006400077736E6A65615D5854504C4844403C383D
:1006500035312E2A2724211E1B181613110F0D0BBE
:100660000908060504030201010000000000010161
:10067000020304050608090B0D0F111316181B1EA3
:100680002124272A2E3135383C4044484C505458B8
:100690005D61656A6E73777C80000000BC060008AF
:1006A000000000202000000028010008DC060008EF
:1006B0002000002060060000440100080000000047
:1006C000010000000000000000A24A040000000039
:0C06D000000000000102030406070809F6
:04000005080000ED02
:00000001FF
