:020000040800F2
:10000000980C002089010008910100089301000864
:100010009501000897010008990100080000000000
:100020000000000000000000000000009B0100082C
:100030009D010008000000009F010008F50600086F
:10004000A3010008A3010008A3010008A301000800
:10005000A3010008A3010008A3010008A3010008F0
:10006000A3010008A3010008A3010008A3010008E0
:10007000A3010008A3010008A3010008A3010008D0
:10008000A3010008A301000861020008A301000801
:10009000A3010008A3010008A3010008A3010008B0
:1000A000A3010008A3010008A3010008A3010008A0
:1000B000A301000865070008A3010008A3010008C8
:1000C000A3010008A3010008A3010008A301000880
:1000D000A3010008A3010008A3010008A301000870
:1000E00019030008A3010008A301000800F002F8AA
:1000F00000F03AF80AA090E8000C82448344AAF188
:100100000107DA4501D100F02FF8AFF2090EBAE885
:100110000F0013F0010F18BFFB1A43F0010318473B
:10012000001B0000201B0000103A24BF78C878C1D3
:10013000FAD8520724BF30C830C144BF04680C60ED
:10014000704700000023002400250026103A28BF35
:1001500078C1FBD8520728BF30C148BF0B60704739
:100160001FB51FBD10B510BD00F044F81146FFF7D4
:10017000F7FF00F01FFF00F062F803B4FFF7F2FF93
:1001800003BC00F065F800000948804709480047B3
:10019000FEE7FEE7FEE7FEE7FEE7FEE7FEE7FEE737
:1001A000FEE7FEE704480549054A064B7047000094
:1001B00005070008ED00000898060020980C0020B4
:1001C000980800209808002070477047704710B5C5
:1001D00000F008F8006810BD10B5044600F002F801
:1001E000046010BD00487047340600200048704786
:1001F000340600207546FFF7F9FFAE460500694654
:10020000534620F00700854618B020B5FFF7CAFF17
:10021000BDE820404FF000064FF000074FF0000807
:100220004FF0000B21F00701AC46ACE8C009ACE888
:10023000C009ACE8C009ACE8C0098D46704710B5EC
:100240000446AFF300802046BDE81040FFF795BF9D
:1002500001491820ABBEFEE72600020070470000EF
:100260000848006800F0020050B106484C300068B1
:10027000054908600348006820F002000149086051
:1002800070470000002401400400002010B514480D
:10029000006840F4006012490860114808300068A6
:1002A00040F003000E490831086000200C492C3151
:1002B00008600B48001F006840F020000849091F33
:1002C0000860081D006840F00100091D0860002159
:1002D000122000F02DFB122000F018FB10BD0000D2
:1002E0000824014000B5642000F056FE094800686B
:1002F00040F0010007490860642000F04DFE054809
:10030000006840F48000034908600A2000F044FEC1
:1003100000BD00000824014000B52048006800F43A
:100320008060C0B11E480068401C1D490860084636
:100330000068022801D90020086000F085FE1948F5
:10034000C06880F400501749C8601448006840F441
:100350008060124908601148006800F40060D8B15C
:1003600011480068401C10490860084600680228CF
:1003700001D90020086001200C49086000F064FEEB
:100380000848C06880F400500649C8600348006807
:1003900040F400600149086000BD00001404014001
:1003A0001400002000100140180000201C00002054
:1003B00010B51D48006920F470611B480161006997
:1003C00020F47041184801611848006840F48060CA
:1003D0001649086015480C30006820F48060134905
:1003E0000C310860081F006840F48060091F086035
:1003F0000E48006840F400600C4908600B480C305F
:10040000006820F4006009490C310860081F00688A
:1004100040F40060091F08600121282000F088FADC
:10042000282000F073FA10BD0000014000040140D4
:100430001348006813490840114908601248406891
:1004400020F47000104948600846406840F40010ED
:1004500048600846C06820F40050C8604FF0333050
:100460000A4908600648001D006820F47F400449DE
:10047000091D08600846006840F40840086070479D
:10048000000801400044444400100140000C0140B9
:1004900010B500F001F810BD0CB5002001900090DF
:1004A0003348006840F480303149086000BF30486C
:1004B000006800F4003000900198401C0190009802
:1004C00018B90198B0F5A06FF1D12948006800F47F
:1004D000003010B10120009001E000200090009851
:1004E000012843D12348006840F0100021490860EA
:1004F0000846006820F0070008600846006840F0E1
:10050000020008601A484068194948600846406877
:1005100048600846406840F480604860084640688B
:1005200020F47C1048600846406840F4E8104860B9
:100530000846006840F08070086000BF0C48006802
:1005400000F000700028F9D00948406820F003004E
:10055000074948600846406840F00200486000BF14
:100560000348406800F00C000828F9D10CBD0000D9
:1005700000100240002002402DE9F04786B04FF005
:10058000000A2FE0504601F022F80646184A194B9F
:1005900001F048F80022184BCDE9000100F062FE9E
:1005A000044600F05FFD0022144BCDE9020100F08B
:1005B000A9FD80460022124B01F034F8CDE9040178
:1005C00000F0D8FFC0B20F4921F81A00084630F8F1
:1005D0001A004FF6FF7101EA00200A4921F81A00BB
:1005E0000AF1010ABAF1FF0FCCDD06B0BDE8F087D1
:1005F000182D4454FB211940000070400000F03FCA
:1006000000C05F4034000020002004E00021084AC0
:1006100022F81010401C8028F8DB802005E04FF401
:100620007F41034A22F81010401CFF28F7DD704775
:10063000340400202E48006840F480302C490860C3
:1006400000BF2B48006800F400300028F9D028488B
:10065000406840F4E010264948600846406840F48D
:10066000004048600846406840F4806048600846A2
:10067000406840F4803048600846006840F0807070
:10068000086000BF1A48006800F000700028F9D028
:100690001748406840F002001549486000BF144800
:1006A000406800F008000028F9D01148006820F0E8
:1006B00001000F49086000BF0D48006800F002000B
:1006C0000228F9D00A48806940F01C000849886176
:1006D0000846806940F4007088610846806940F0EF
:1006E000010088610846C06940F00300C861704796
:1006F0000010024002480068401C01490860704731
:100700003000002010B51348006840F00100114986
:10071000086008464068104908400E49486008468D
:1007200000680E4908400B4908600846006820F43C
:10073000802008600846406820F4FE0048604FF4BE
:100740001F008860FFF7A4FE4FF0006004490860B6
:1007500010BD0000001002400000FFF8FFFFF6FE91
:1007600008ED00E02748008800F00100002847D08D
:100770002448008820F001002249088022480068AF
:1007800020B1012815D0022839D125E01F48204981
:10079000098830F811001F4908601D480088401C76
:1007A0001B49088008460088FF2801DD00200880DA
:1007B00025E019481949098830F8110015490860E1
:1007C00016480088401C1549088008460088FF2804
:1007D00001DD0020088012E011481249098830F834
:1007E00011000C4908600F480088401C0D49088022
:1007F00008460088FF2801DD0020088000BF00BFF8
:100800007047000010040040140000203402002053
:10081000280000200C0C0140340000202A00002099
:10082000340400202C00002010B51448C06940F0AA
:1008300002001249C8610820114908801148124974
:10084000096830F821000E49091D08800C481C3841
:10085000008840F001000A491C39088008482838FF
:10086000008840F0010006492839088002211D2037
:1008700000F05EF81D2000F049F810BD00100240A5
:1008800028040040200000201800002000200FE075
:100890004106090E124A22F81010114631F81010C4
:1008A0004FF6FF7202EA01210D4A22F81010401C97
:1008B0008028EDDB802010E041424906090E084AFD
:1008C00022F81010114631F810104FF6FF7202EAAC
:1008D0000121034A22F81010401CFF28ECDD70476C
:1008E00034020020490050EAC12018BF04204A0DFC
:1008F00018BF40F0010040F2FF72B2EB515F08BF39
:1009000040F00200012808BF0520704700280DDBD9
:1009100000BF00BF00F01F02012191404209920078
:1009200002F1E022C2F8001100BF00BF70470000D2
:1009300010B5002804DB0A07130E054A135406E01D
:100940000A07140E034A00F00F031B1FD45410BDF6
:1009500000E400E018ED00E02DE9F74F144694B0F4
:100960000021C4E902111599079121F00045C949F8
:100970008D4206DC1599C4E9000117B00020BDE8DE
:10098000F08FC549DFF814A3A9423CDD0799C44E96
:100990000029C44FC44A1599534619DD00F04CFF95
:1009A000554506D0C14AC24B00F046FFC4E90001DC
:1009B0000AE04FF0D352BE4B00F03EFF32463B46BA
:1009C00000F03AFFC4E9000117B00120BDE8F08F44
:1009D00000F098FB554506D0B44AB54B00F092FBA9
:1009E000C4E900010AE04FF0D352B14B00F08AFB9A
:1009F00032463B4600F086FBC4E9000117B04FF0D9
:100A0000FF30BDE8F08FAB49A942159978DB21F0A2
:100A1000004183468846A84AA84B00F003FE002206
:100A2000A74B00F06FFB00F075FD099000F0CFFDC3
:100A300006460F469C4A534600F0F4FD43465A468C
:100A400000F0EEFE80468A46984A994B3046394679
:100A500000F0E8FD2A0D01250B924246534600F0B6
:100A6000DFFE032DC4E9000139D00B98C1F30A5110
:100A7000401A05EB45111139814230DA9148C346DD
:100A8000784400EB0510CDF80CA00C90D0E90023C1
:100A90003046394600F0C6FD02460B4604910690EA
:100AA0005846039900F0C8FE80468A4602460B4627
:100AB0005846039900F0C0FE049B069A00F0BCFE65
:100AC00083460C9803913946D0E90223304600F062
:100AD000A9FD5A46039B00F0AFFE6D1CBDE70798C9
:100AE0000028A2BF099817B0BDE8F08F616881F0B7
:100AF00000416160099817B04042BDE8F08FFFE700
:100B000084461598C1F31301C0F30A50A0F2F530E2
:100B10004FEA601800F01F06C6F120001390002075
:100B20000690079041F4801E05206D4676B1664A16
:100B300008EB00017A4452F8213002EB8101B34006
:100B40004A68139922FA01F1194305E05F4908EB5D
:100B50000002794451F82210A1FB0E27A1FB0C13CF
:100B60001A449A4234BF0123002303EB070A05EB22
:100B70008003D3E901B70F448F4234BF0121002124
:100B800093448B4411B1934502D903E0934501D2BC
:100B9000012100E00021C3E901B7514445F82010CC
:100BA000011EA0F10100C1DC0298059F00F1005078
:100BB000800F12900298DDE90356800000F007FDD7
:100BC000834628460D9100F019FD6FF01D0200F0DC
:100BD0004FFFCDE90E01304600F010FD6FF03D02F1
:100BE00000F046FF80468A46384600F007FD6FF069
:100BF0005D0200F03DFF074642465346119100F06A
:100C000081FADDE90E2300F07DFA5A460D9B00F0D3
:100C100079FA00250E465A4628460D9B00F00CFE38
:100C2000DDE90E2300F008FE4246534600F004FEC4
:100C30003A46119B00F0F4FDDFF898A0244A534691
:100C400000F0F0FC07468846234A244B31462846EC
:100C500000F0E8FC3A46434600F054FA074688465E
:100C60004FF0A84253463146284600F0DBFC3A4696
:100C7000434600F047FA159A12F0004F04D0129A3A
:100C800081F0004152421292C4E90001129817B05B
:100C9000BDE8F08FFB21E93F7CD90240FB21F93F01
:100CA0007370032E8A19A33B000040543163621A0B
:100CB00061B4D03DFB21394183C8C96D305FE43F49
:100CC0000000E03FAC100000281000000A100000F7
:100CD000182D4454FB21F93D3326A611460B113C37
:100CE0002DE9FF4D21F0004807460C46B8F1795F29
:100CF00008DA00F00FFC002801BF0020324904B0E0
:100D0000BDE8F08D3A4623461046194600F08AFCAD
:100D1000054602462D480E460B460621784400F053
:100D20005DF82A46334600F07DFCDDE90223824669
:100D30008B463846214600F075FC04460F46524665
:100D40005B462846314600F06DFC22463B4600F0EB
:100D500073FD07468A464FF0FF322846314600F0C1
:100D600087FE1B4A90450ADA3A46534600F064FD76
:100D700004B00022BDE8F04D134B00F051BD154A00
:100D80004245A8BFA8F500154FF00004B8BF124DAA
:100D900022462B4600F050FD0646884622462B464A
:100DA0000020094900F048FD04460D463A465346E6
:100DB0003046414600F040FD04B022462B46BDE8D7
:100DC000F04D00F02DBD00000000F03FE00D0000F0
:100DD0003333D33F0000E93F0000D23F2DE9F0411B
:100DE0004F1E00EBC7010446D1E9000115461E461F
:100DF00037F006020DD02A46334600F013FC7F1E62
:100E000004EBC703D3E9002300F07CF937F00602B6
:100E1000F1D1022F25D0042F13D0062F18BFBDE823
:100E2000F0812A46334600F0FDFBD4E90A2300F0A6
:100E300069F92A46334600F0F5FBD4E9082300F0AF
:100E400061F92A46334600F0EDFBD4E9062300F0B1
:100E500059F92A46334600F0E5FBD4E9042300F0B3
:100E600051F92A46334600F0DDFBD4E9022300F0B5
:100E700049F92A46334600F0D5FBD4E90023BDE802
:100E8000F04100F03FB900002DE9FF4D054621F08B
:100E9000004084B00C46B0F1795F0BDA2846FFF7CA
:100EA00021FD042808BF00F06FF8284608B021464D
:100EB000BDE8F08D2A460B46104600F0B3FB06460F
:100EC0000F462A46234600F0ADFB804626488A4658
:100ED00032463B4605217844FFF780FF8346109851
:100EE000029160B3214A224B4046514600F09AFBE2
:100EF000CDE900015A4640465146029B00F092FB64
:100F000082468846DDE906014FF0FF3200F0B0FD71
:100F10005246434600F090FC32463B4600F082FBCE
:100F2000DDE9062300F088FCDDE9002300F084FC05
:100F300008B02A462346BDE8F04D00F071BC0B46D0
:100F40005A463046394600F06DFB084A084B00F01F
:100F5000D9F84246534600F065FB08B02A462346BE
:100F6000BDE8F04D00F0CEB81E0D000049555555B6
:100F70005555C5BF012200F07BBD00221346104627
:100F8000114600F06FB90000024A0020110700F07E
:100F90006FBD000001FDFFFF10B5002107E04FF419
:100FA0007A6200BF131EA2F10102FBD1491C8142EB
:100FB000F5D310BDFFF7E0FAFFF768FCFFF724FB5D
:100FC000FFF738FBFFF734FAFFF72EFCFFF7F0F9D5
:100FD000FFF75CF9FFF786F91EE010480068002073
:100FE0000F4908600F4800680F4908600D484068C5
:100FF0000E4908600E4800680E4908600E480068F7
:1010000050B10E480E49096830F82100401E0D49C4
:101010000880002008490860DFE700004C240140F8
:101020000000002000100240080000200C000020FA
:101030000C0C0140100000201C00002020000020AB
:10104000180000202C0400400020034908800349B8
:1010500008800349088070472C0000202A000020E7
:101060002800002000B5254B21F0004287B09A42AD
:1010700003DC0022134600922BE0214B9A4208D158
:1010800040B94FF00100FFF7A7F8FFF776FF07B070
:1010900000BD03DBFFF76EFF07B000BD02AAFFF73C
:1010A0005BFC10F003014FF001000DD0012914D0BA
:1010B00002291AD00DF1080C9CE80F00FFF710FE72
:1010C00007B081F0004100BD0DF1080C00909CE8D4
:1010D0000F00FFF7D9FE07B000BD0DF1080C9CE82A
:1010E0000F00FFF7FDFD07B000BD0DF1080C0090EB
:1010F0009CE80F00FFF7C8FEE2E70000FB21E93F94
:101100000000F07F10B591EA030F48BF83F0004361
:1011100000F19A83841A71EB030C05D2121943EB88
:101120000C03001B61EB0C01DFF824E14FEA1154C2
:10113000A4EB135C1EEA430F18BF9EEA445F73D012
:1011400023EA0E03DCF1200E21EA045143F480135C
:1011500032D322FA0CFE10EB0E0023FA0CFE41EB08
:101160000E01CCF1200E03FA0EFE10EB0E0051F131
:101170000001B1F5801FCCF1200E32D201EB0451F9
:1011800012FA0EF2BDE8104058BF7047401C38BF3D
:101190005FEA420218BF7047002814BF20F0010028
:1011A00041F100014FEA410313F5001F38BF7047BA
:1011B000A1F1C04100F02EBB012A43EB0302ACF1C8
:1011C000200CDCF11F0E32BF4FF0000E23FA0CF39F
:1011D00010EB030041EB0451B4EB115FD0D0A1EB55
:1011E000045101F5801149085FEA300001EB045118
:1011F0000ED350F1000038BF12FA0EFE08D1BDE840
:101200001040C9E7401C38BF5FEA4202CAD1C3E7B9
:10121000BDE810404FEA410313F5001F38BF704787
:10122000A1F1C04100F0F6BA9EEA445F08D011EA8D
:101230005E0FBDE8104004BF01F000410020704780
:10124000BDE8104070B500F097FA00BF64FBBE3EE9
:101250000000E0FF02494FF0000000F0D7BB00BFE4
:101260000000F87F2DE9C04130B4DFF8A0C23CEAAD
:10127000111418BF3CEA131400F0EC8081EA030556
:101280001CEA111444EAD57418BF1CEA131500F0C7
:10129000C780A4EB05044FF0004545EAC12145EAAB
:1012A000C32341EA505143EA525304F17F749942F7
:1012B00004F500344FEAC0204FEAC22208BF904232
:1012C00000F09C804FEA13650FF24016765D4FEAFE
:1012D000134506FB05F7C7F1807706FB07F74FEAD2
:1012E000D737A7FB03687642C8F58038A7FB06CE40
:1012F00038BFA8F1010807FB08E64FF0000EA6FB77
:10130000028CE6FB03CEDCF1000CCEF1004E38BFC0
:10131000AEF1010EA6FB0C584FF000074FF0000590
:10132000E6FB0E87A1FB08C6A0FB07CE16EB0E0658
:1013300045F10005E1FB076515F1E04E7EBFA4F520
:1013400080345FEA46066D4116F1800745F10005DD
:101350004FEA17274FEA066647EA0567A6F1DE4619
:10136000B6F1805F4FEA15251FD9384624F0010CED
:1013700005EBC471BCF1FE6F01EB0C1102D8F0BC9F
:10138000BDE8008124425CBF01F5801E9EEAC47F57
:1013900002D4F0BCBDE80081244238D4F0BCA1F1F5
:1013A000C041BDE8004100F035BA4FEAD22242EA1E
:1013B00043524FEAD323A7FB02864FEAD02040EAEC
:1013C000415007FB03661EEA0E0F4FEAD12105FBD1
:1013D000026658BFA6EB0056B6EB00564FEA520E17
:1013E0004EEAC37E18EB0E0E56EB530EBDD518EB2E
:1013F00002085E417F1C55F10005B6E74FF48015E9
:101400004FF000074FF000064FF00008ADE7F0BCCA
:101410004FF0000001F1C04101F00041BDE8008142
:1014200011EA0C1F0CEA131500D00CE013EA0C1F94
:1014300000F025804FF00000F0BC81EA030101F0CC
:101440000041BDE80081F0BCBDE8004181EA030134
:1014500000F0E0B9F0BCBDE8004170B500F08CF9D7
:10146000097EFC3E00F007B881EA03014FF000005E
:1014700001F00041704781EA030100F0CBB9F0BCF4
:10148000BDE800414FF0000021497047FFFDFBF926
:10149000F7F5F4F2F0EEEDEBE9E8E6E4E3E1E0DEA7
:1014A000DDDBDAD8D7D5D4D3D1D0CFCDCCCBCAC819
:1014B000C7C6C5C4C2C1C0BFBEBDBCBBBAB9B8B740
:1014C000B6B5B4B3B2B1B0AFAEADACABAAA9A8A833
:1014D000A7A6A5A4A3A3A2A1A09F9F9E9D9C9C9B01
:1014E0009A999998979796959594939392919190AC
:1014F0008F8F8E8E8D8C8C8B8B8A8989888887873D
:101500008685858484838382828181800000FF07B1
:101510000000F87F4FEA41034FEA5353A3F580637D
:10152000D3F11E03C8BFD3F1210C0CDD4FF00042F4
:1015300042EAC12242EA505232FA03FC8CEAE17CD0
:10154000ACEBE1707047102BC4BF0020704703F56F
:10155000787CBCF1FF3F04D06FF0004282EA2100AA
:10156000704770B500F008F9499224800020704758
:10157000F2E700004FEA1153A3F58063D3F11E0395
:10158000A8BFD3F1200C08DB4FF0004242EAC12291
:1015900052EA505232FA03F0704709420BD4102B32
:1015A000C4BF0020704703F5787CBCF1FF3F05D035
:1015B0004FF0FF3070474FF00000704770B500F0FB
:1015C000DBF800BF4992248000207047F0E710F05C
:1015D000004248BF4042B0FA80F310FA03F10AD04B
:1015E000C3F11D0303F580634FEA415002EB035240
:1015F00002EBD12170474FF000007047B0FA80F342
:1016000010FA03F10AD0C3F11D0303F580634FEA1A
:1016100041504FEA035202EBD12170474FF00000D6
:1016200070470000DFF848C170B51CEA111E1EBFEC
:101630001CEA13159EEA0C0F95EA0C0F00F06F8060
:1016400081EA030423EA4C134EEAD47E21EA4C11CA
:1016500041F4801143F48013AE44A1FB024CA0FB83
:101660000365AEF17F7E361955EB0C05A1FB034CEB
:101670004CF10003A0FB021C16EB0C06654153F174
:101680000003094218BF46F0010613F4007F0BD196
:101690004FEA03314FEA0530340341EA155140EA7D
:1016A00016506FF003020AE04FEAC3214FEAC5204B
:1016B000F40241EA555140EA56506FF0020202EB43
:1016C0002E4201EB025585EACE710AD05FEA440C46
:1016D00018BF24F0004450F1000041F1000120EA5D
:1016E000D47040F2FE7C624500D270BDA84214BFA7
:1016F0004FF080444FF04044002E08BF0024BEF15C
:10170000806FA8BFA1F1C041BDE8704080F2828027
:101710004FF0000001F1C04101F0004170479EEA26
:101720000C0F0CEA131518BF95EA0C0F06D04FF0FA
:10173000000081EA030E0EF0004170BD00F01CF8BD
:101740008900013E00F007B800F009B84FEA430CE9
:101750005FEA5C5C08D081EA030100F05BB84FEA05
:10176000410C5FEA5C5CF6D14FF000000149704724
:101770000000FF070000F87F0EF1020E2EF0030EAE
:101780005EF8046B364205D4012A43EB030515F5D8
:10179000001F12D8012841EB010C1CF5001F0CD8CA
:1017A0000ED14FEAD17C15F5001F0CEB4C0C0CF15F
:1017B000020C08BF4CEBD37C04E04FF0080C01E0B6
:1017C0004FEAD37C0CEB4C0526FA05F606F007062B
:1017D000B6F1040C06D20EEB860CBDE870404CF05E
:1017E000010C6047DFE80CF0090B02024FF00041EA
:1017F0004FF00000A1F5002170BD194610460128E8
:1018000051EB010418BFD4F5001484BF002001F08F
:10181000004170BD0808A0F500114FEA3101704782
:1018200091EA030F10B581F000413FF573AC83F0EE
:10183000004300F009B8000010B591EA030F48BF5B
:1018400083F000433FF566AC841A71EB030C07D2BA
:1018500012198CF0004C43EB0C03001B61EB0C01E4
:10186000DFF8A4E14FEA1154A4EB135C1EEA430F26
:1018700018BF9EEA445F00F0B08023EA6E03524234
:1018800021EA0451C3EB6E0338BF5B1EDCF1200E6E
:1018900025D322FA0CFE10EB0E0043FA0CFE41EBAE
:1018A0000E01CCF1200E03FA0EFE10EB0E0051F1EA
:1018B0000001CCF1200E29D412FA0EF201EB0451F2
:1018C000BDE8104058BF7047401C1CBFB2F1004F2C
:1018D000704700280CBF491C20F00100704712EB34
:1018E000020E43EB030218BF4FF0010E4EEA420214
:1018F000ACF1200CDCF11E0E54D943FA0CFE10EBB7
:101900000E0051F1FF31CCF11E0ED5D50EF1010EB6
:1019100012FA0EFE404141EB010101EB445C5FEA2B
:101920005C5C10D910EBDE7001EB045138BFBEF1E6
:10193000004FBDE8104018BF704700280CBF491C7D
:1019400020F00100704730D24FEAD42C11F500117D
:1019500024F400641BD0B1FA81F20B3AA41AA41E3D
:10196000D2F12003914030FA03F31943904001EB88
:10197000CC71002C01EB0451BDE81040A8BF7047AA
:1019800001F1C0414FF0000001F000417047B0FA92
:1019900080F310FA03F100D110BDE41A173C48059A
:1019A000C90AE4E701EB045110BD491001EB0451F1
:1019B000BDE810404FEA300002E04FF000017047F0
:1019C0004A0008BF0042F8D0B2F5001F28BF704798
:1019D00001F000414FF0000070479EEA445F07D0DD
:1019E00011EA5E0FBDE8104004BF002100207047DF
:1019F000BDE8104070B5FFF7BFFE00BF40DFF63E08
:101A000083F00041104670470000E0FF0CF00F0328
:101A1000092B08BF082000F059800A2B0BD0082B97
:101A200018BF704708BF1CF0400F0AD04FF00000ED
:101A30004FF0000170471CF0400F18BF4FF00040FE
:101A400070471CF0100F08D020F0704300F07F4268
:101A500042EAD3014FEA4370704700F0604021F042
:101A60007F4242EA000201F07F4040EA7270704714
:101A70004FF0FF0C4CF4E06C1CEA11531CBF9CEAC5
:101A8000030C9445C2BFDA4201EB02517047002BB0
:101A90000DD0BCF1000F0FD0002A01F00041A4BF0F
:101AA00041F0E04141F07F614FF00000704701F0EC
:101AB00000414FF00000704750EA01334FF09B0C9B
:101AC00018BF4CF0806C7FF4C5AB70471CF4801FCE
:101AD00011D01CF4E02F03D06FEACC3149007047DD
:101AE0004FF04050EFF3008222F0704242EA0002D1
:101AF00082F3008870474FF000007047000000003C
:101B00004C5555555555A53F7751C1166CC156BF1B
:101B10009015CB19A001FA3EAD529C804F7E92BE2B
:101B2000C4B1B4BD9EEE213ED43888BEE9FAA8BD4A
:101B300000004054FB21F93F3163621A61B4D03D8B
:101B40000000601A61B4D03D7370032E8A19A33B64
:101B50000000002E8A19A33BC14920259A837B39B6
:101B600000000000000000006E83F9A22915444E19
:101B7000D15727FCC0DD34F5999562DB4190433C99
:101B8000AB6351FE61C5BBDE3A6E24B7E0D24D4275
:101B9000EA2E49061C92D1091CEB1DFE3EA729B175
:101BA000F53582E88444BB2E26709CE9417E5FB403
:101BB00039D69139F43953838B5F849C3B28F9BD26
:101BC000FF97F81F0F9805DE8B112FEF1F6D0A5A34
:101BD000CF7E366DB709CB27663F464F2DEA5F9E15
:101BE000C7BA27757BF1E5EBF739073DEA92528AD0
:101BF000B15FFB6B085D8D1FA6F810111111813FBD
:101C0000D561C119A0012ABF7DFEB157E31DC73EB2
:101C1000EB9C2B8AE6E55ABE7CD5CF5A3AD9E53DF6
:101C2000401C0008000000203400000028010008CB
:101C3000741C000834000020640C000044010008FB
:101C40000000000000000000000000000000000094
:101C50000000000000000000000000000000000084
:101C600088130000102700000000000000000000A2
:041C70000000000070
:04000005080000ED02
:00000001FF
