:020000040800F2
:100000007006002089010008910100089301000892
:100010009501000897010008990100080000000000
:100020000000000000000000000000009B0100082C
:100030009D010008000000009F010008A1010008C8
:10004000A3010008A3010008A3010008A301000800
:10005000A3010008A3010008A3010008A3010008F0
:10006000A3010008A3010008A3010008A3010008E0
:10007000A3010008A3010008A3010008A3010008D0
:10008000A3010008A3010008A3010008A3010008C0
:10009000A3010008A3010008A3010008A3010008B0
:1000A000A3010008A3010008A3010008A3010008A0
:1000B000A3010008A3010008A3010008A301000890
:1000C000A3010008A3010008A3010008A301000880
:1000D000A3010008A3010008A3010008A301000870
:1000E000A3010008A3010008A301000800F002F822
:1000F00000F03AF80AA090E8000C82448344AAF188
:100100000107DA4501D100F02FF8AFF2090EBAE885
:100110000F0013F0010F18BFFB1A43F0010318473B
:100120000805000028050000103A24BF78C878C1EF
:10013000FAD8520724BF30C830C144BF04680C60ED
:10014000704700000023002400250026103A28BF35
:1001500078C1FBD8520728BF30C148BF0B60704739
:100160001FB51FBD10B510BD00F031F81146FFF7E7
:10017000F7FF00F041FA00F04FF803B4FFF7F2FF89
:1001800003BC00F057F800000948804709480047C1
:10019000FEE7FEE7FEE7FEE7FEE7FEE7FEE7FEE737
:1001A000FEE7FEE704480549054A064B7047000094
:1001B00099050008ED00000870000020700600207E
:1001C000700200207002002070477047704775462B
:1001D00000F02CF8AE4605006946534620F00700B3
:1001E000854618B020B5FFF7DDFFBDE820404FF091
:1001F00000064FF000074FF000084FF0000B21F011
:100200000701AC46ACE8C009ACE8C009ACE8C009DD
:10021000ACE8C0098D46704710B50446AFF30080C6
:100220002046BDE81040FFF7A8BF00000048704717
:100230000C00002001491820ABBEFEE7260002009A
:10024000704700000D48806940F004000B49886148
:100250000B4800680B4908400949086008460068D7
:10026000094908430649086005480830006840F419
:10027000E050034908310860704700000010024058
:1002800004080140FF00F0FF008808000D48806965
:1002900040F004000B4988610B48006800200A49BF
:1002A00008600846006840F033300860081D0068A8
:1002B00020F0FF00091D08600846006840F0330088
:1002C00008607047001002400008014000BF011E96
:1002D000A0F10100FBD1704730B5044640F2E73091
:1002E000844204D30921042000F0A6F82DE0642004
:1002F000B4FBF0F52946012000F09EF81348006891
:1003000020F460701149086005EBC50000EB051092
:10031000A4EB80040A20B4FBF0F52946022000F08B
:100320008BF80A48006820F460700849086005EB03
:100330008500A4EB40052946032000F07DF8034822
:10034000006820F460700149086030BD0C0801406D
:1003500010B500F001F810BD0CB500200190009020
:100360003348006840F480303149086000BF3048AD
:10037000006800F4003000900198401C0190009843
:1003800018B90198B0F5A06FF1D12948006800F4C0
:10039000003010B10120009001E000200090009892
:1003A000012843D12348006840F01000214908602B
:1003B0000846006820F0070008600846006840F022
:1003C000020008601A4840681949486008464068B9
:1003D00048600846406840F48060486008464068CD
:1003E00020F47C1048600846406840F4E8104860FB
:1003F0000846006840F08070086000BF0C48006844
:1004000000F000700028F9D00948406820F003008F
:10041000074948600846406840F00200486000BF55
:100420000348406800F00C000828F9D10CBD00001A
:10043000001002400020024030B504460D465348EB
:10044000435D03F0010030B15148006840F04000C6
:100450004F49086005E04E48006820F040004C49D4
:1004600008605B0803F0010030B14948006840F0C3
:1004700020004749086005E04548006820F020005A
:10048000434908605B0803F0010030B14048006850
:1004900040F010003E49086005E03D48006820F04B
:1004A00010003B4908605B0803F0010030B1384898
:1004B000006840F008003649086005E034480068EC
:1004C00020F00800324908605B0803F0010030B1F9
:1004D0002F48006840F004002D49086005E02C48D2
:1004E000006820F004002A4908605B0803F001005E
:1004F00030B12748006840F002002549086005E057
:100500002348006820F00200214908605B0803F0DE
:10051000010030B11E48006840F001001C4908602D
:1005200005E01B48006820F0010019490860012C13
:1005300006D11748006840F080001549086020E0A7
:10054000022C06D11248006840F4807010490860FF
:1005500017E0032C06D10E48006840F400700C49E7
:1005600008600EE0042C06D10948006840F4607071
:100570000749086005E00648006820F460700449F7
:1005800008600448FFF7A2FE30BD00000000002014
:100590000C0801407011010010B51348006840F0CC
:1005A00001001149086008464068104908400E499A
:1005B0004860084600680E4908400B490860084634
:1005C000006820F4802008600846406820F4FE009F
:1005D00048604FF41F008860FFF7BAFE4FF00060DC
:1005E0000449086010BD0000001002400000FFF840
:1005F000FFFFF6FE08ED00E00124FFF747FEFFF7DE
:1006000021FE0FE04FF47A70FFF760FE07E020460E
:10061000FFF762FE641C4FF47A70FFF757FE642CFC
:10062000F5D30024EEE70000480600080000002093
:100630000C00000028010008540600080C000020EF
:10064000640600004401000881CF9286CCA4A08FEC
:0406500080840000A2
:040000050800018965
:00000001FF
