:020000040800F2
:10000000780600208901000891010008930100088A
:100010009501000897010008990100080000000000
:100020000000000000000000000000009B0100082C
:100030009D010008000000009F010008D90300088E
:10004000A3010008A3010008A3010008A301000800
:10005000A3010008A3010008A3010008A3010008F0
:10006000A3010008A3010008A3010008A3010008E0
:10007000A3010008A3010008A3010008A3010008D0
:10008000A3010008A3010008A3010008A3010008C0
:10009000A3010008A3010008A3010008A3010008B0
:1000A000A3010008A3010008A3010008A3010008A0
:1000B000A3010008A3010008A3010008A301000890
:1000C000A3010008A3010008A3010008A301000880
:1000D000A3010008A3010008A3010008A301000870
:1000E000A3010008A3010008A301000800F002F822
:1000F00000F03AF80AA090E8000C82448344AAF188
:100100000107DA4501D100F02FF8AFF2090EBAE885
:100110000F0013F0010F18BFFB1A43F0010318473B
:100120001C0400003C040000103A24BF78C878C1C9
:10013000FAD8520724BF30C830C144BF04680C60ED
:10014000704700000023002400250026103A28BF35
:1001500078C1FBD8520728BF30C148BF0B60704739
:100160001FB51FBD10B510BD00F031F81146FFF7E7
:10017000F7FF00F07BF900F04FF803B4FFF7F2FF50
:1001800003BC00F057F800000948804709480047C1
:10019000FEE7FEE7FEE7FEE7FEE7FEE7FEE7FEE737
:1001A000FEE7FEE704480549054A064B7047000094
:1001B000E9030008ED000008780000207806002020
:1001C000780200207802002070477047704775461B
:1001D00000F02CF8AE4605006946534620F00700B3
:1001E000854618B020B5FFF7DDFFBDE820404FF091
:1001F00000064FF000074FF000084FF0000B21F011
:100200000701AC46ACE8C009ACE8C009ACE8C009DD
:10021000ACE8C0098D46704710B50446AFF30080C6
:100220002046BDE81040FFF7A8BF00000048704717
:100230001800002001491820ABBEFEE7260002008E
:10024000704700000D48806940F004000B49886148
:100250000B48006800200A4908600846006848F614
:10026000880108430649086005480C30006840F0E2
:100270000F0003490C310860704700000010024075
:10028000000801400848806940F00800064988617C
:10029000064800680020054908600846006840F0EC
:1002A000113008607047000000100240000C01404F
:1002B00000BF044909688142FBD30021014A116053
:1002C000704700000000002010B500F001F810BDDC
:1002D0000CB50020019000903348006840F4803055
:1002E0003149086000BF3048006800F400300090D9
:1002F0000198401C0190009818B90198B0F5A06FC2
:10030000F1D12948006800F4003010B101200090BC
:1003100001E0002000900098012843D123480068A4
:1003200040F01000214908600846006820F00700EE
:1003300008600846006840F0020008601A484068FB
:10034000194948600846406848600846406840F4DB
:10035000806048600846406820F47C104860084689
:10036000406840F4E81048600846006840F080703B
:10037000086000BF0C48006800F000700028F9D049
:100380000948406820F00300074948600846406873
:1003900040F00200486000BF0348406800F00C00D5
:1003A0000828F9D10CBD00000010024000200240D6
:1003B00070B50546002407E00548005D0549086062
:1003C0002846FFF775FF641CB52CF5DB70BD0000F7
:1003D000860400080C0C014002480068401C0149DA
:1003E000086070470000002010B51348006840F016
:1003F00001001149086008464068104908400E494C
:100400004860084600680E4908400B4908600846E5
:10041000006820F4802008600846406820F4FE0050
:1004200048604FF41F008860FFF74EFF4FF00060F8
:100430000449086010BD0000001002400000FFF8F1
:10044000FFFFF6FE08ED00E0064800680649B0FB35
:10045000F1F04FF0E02148610846006940F00700E4
:10046000086170470400002040190100FFF7EAFE10
:10047000FFF708FFFFF7E8FFFFF7AEFF02E01420E9
:10048000FFF796FFFBE78084898D92969B9FA3A838
:10049000ACB0B4B8BCC0C4C8CBCFD2D6D9DCDFE2D4
:1004A000E5E8EAEDEFF1F3F5F7F8FAFBFCFDFEFE07
:1004B000FFFFFFFFFFFFFFFFFEFDFCFBFAF8F7F574
:1004C000F3F1EFEDEAE8E5E2DFDCD9D6D2CFCBC835
:1004D000C4C0BCB8B4B0ACA8A39F9B96928D8984CD
:1004E000807C77736E6A65615D5854504C48444017
:1004F0003C3835312E2A2724211E1B181613110FC4
:100500000D0B0908060504030201010000000000AC
:100510000101020304050608090B0D0F111316183B
:100520001B1E2124272A2E3135383C4044484C508C
:1005300054585D61656A6E73777C80005C050008C5
:1005400000000020180000002801000874050008C1
:1005500018000020600600004401000800000000B0
:1005600000A24A0400000000000000000102030491
:040570000607080969
:040000050800018965
:00000001FF
