:020000040800F2
:1000000070060020AD010008B5010008B701000826
:10001000B9010008BB010008BD0100080000000094
:10002000000000000000000000000000BF01000808
:10003000C101000800000000C3010008C50100085C
:10004000C7010008C7010008C7010008C701000870
:10005000C7010008C7010008C7010008C701000860
:10006000C7010008C7010008C7010008C701000850
:10007000C7010008C7010008C7010008C701000840
:10008000C7010008C7010008C7010008C701000830
:10009000C7010008C7010008C7010008C701000820
:1000A000C7010008C7010008C7010008C701000810
:1000B000C7010008C7010008C7010008C701000800
:1000C000C7010008C7010008C7010008C7010008F0
:1000D000C7010008C7010008C7010008C7010008E0
:1000E000C7010008C7010008C701000800F002F8B6
:1000F00000F04DF80AA090E8000C82448344AAF175
:100100000107DA4501D100F042F8AFF2090EBAE872
:100110000F0013F0010F18BFFB1A43F0010318473B
:100120002C3000004C300000103A24BF78C878C151
:10013000FAD8520724BF30C830C144BF04680C60ED
:10014000704700000023002400250026103A28BF35
:1001500078C1FBD8520728BF30C148BF0B60704739
:10016000662902F0DC86642900F07E80732900F0A5
:10017000E483002070471FB500F0E4FB040000207A
:10018000002102F065F8E0601FBD10B510BD00F061
:10019000DDFC1146FFF7EFFF01F0EAFF00F0FBFC8A
:1001A00003B4FFF7F2FF03BC00F03EFD09488047AF
:1001B00009480047FEE7FEE7FEE7FEE7FEE7FEE749
:1001C000FEE7FEE7FEE7FEE704480549054A064B61
:1001D00070470000191B0008ED00000870000020A7
:1001E0007006002070020020700200200FB41CB5C1
:1001F000074B06AA7B4469460090059800F073FB04
:100200000020694600F082FB1CBC5DF814FB000076
:100210001507000070B50C460546012A05D0287860
:10022000800600D5EA69002302E0012305E05B1C9B
:10023000934202D2E05C0028F9D1A869E618C01AFE
:10024000A861286A184428622846AFF3008004E0B9
:10025000D5E9012114F8010B9047B442F8D32846A0
:10026000AFF3008070BD00002DE9F0410646002488
:1002700010687529314616A510D0AFF3008000280C
:1002800002DA404213A507E031688A0701D512A5BA
:1002900002E0490704D511A5012401E0AFF3008075
:1002A00000210A2206F1240709E0B0FBF2FCB0FBB2
:1002B000F2F302FB1C00303078541846491C002829
:1002C000F3D123462A463046BDE8F04100F09DB800
:1002D000000000002D0000002B00000020000000A6
:1002E0002DE9F0474FF0000A89460446C0F820A0E7
:1002F0002046E1688847002876D0252806D0D4E932
:1003000001219047206A401C2062F1E7E168204605
:1003100000258847C4F81CA006460027C4F818A08A
:100320002A2E09D0304601F09DFC38B304EB870833
:10033000303EC8F8186019E059F8041B204604EB59
:1003400087029161E1688847012F064618D1E0696C
:10035000002820DA25F020051DE0D8F8180000EB71
:10036000800006EB40003038C8F818002046E168ED
:100370008847064601F076FC0028EED1012F0AD00E
:100380002E2E08D12046E16888477F1C0646022FA2
:1003900045F02005C4DBA069002803DA404245F09F
:1003A0000105A061E80701D025F01005B6B1A6F15E
:1003B0004100192802D8203645F400654A463146E6
:1003C000204625604D46FFF7CBFE58B1012806D0E8
:1003D000ED1D25F0070000F1080989E704E005F1AB
:1003E000040985E730468AE7206ABDE8F087704750
:1003F0007047704710B500F0A9FA006810BD10B53D
:10040000044600F0A3FA046010BD2DE9F0470D4644
:1004100099469246044600F124080168880604D5EE
:10042000E06921F01001216000E00120A84201DD17
:10043000471B00E00027A1697A1902EB0900081A9E
:10044000A0612078C00602D42046AFF300800026C9
:1004500008E0D4E901211AF806009047206A401C00
:10046000761C20624E45F4DB2078C0060AD5204673
:10047000AFF3008006E0D4E9012130209047206AE4
:10048000401C2062381EA7F10107F4DC07E0D4E924
:10049000012118F805009047206A401C2062281EA0
:1004A000A5F10105F3DC2046AFF3008020780006BB
:1004B00002D50220BDE8F0870120FBE770472DE957
:1004C000FF4F0C461E464FF0FF378BB0D2E90001BC
:1004D000DDF860800A908A46C1F30A5505B93D46A9
:1004E000002108464FF00000BAF1000F00F4400070
:1004F00005DA00EB80004FF4400101EA50004FEABA
:100500009059B9F1010F00DDB9460A9850EA4A0046
:100510000ED044F61050A5F2FF3545432F14B8F124
:10052000000F1ED07542291E1EDDC9F100021CE01D
:10053000B8F1010F4FF0000001D0302103E0F24389
:1005400005E02154401CB042FBDB30460022002174
:1005500021540B99C1F80880C1E900200FB0BDE813
:10056000F08FBD1B6D1CDEE74A4600DA694206A823
:1005700000F076FA06AB93E8070003AB83E80700C8
:1005800050460A9900F057FB8DE80700A0F500508F
:100590001F3800900398002D0ADD42F21F014A46E1
:1005A0000844002303A90390684600F0C0FD09E059
:1005B000A0F500504A461F38002303A9039068465F
:1005C00000F0CAFD8DE807000004000C03D04FF0D6
:1005D000FF30410800E01046B8F1000F03D00022C0
:1005E000009215461EE0751E05D400F0B3F93032B6
:1005F00062556D1EF9D5B3460122084302D0002290
:100600007F1C04E02078302801D100227F1E002AC0
:10061000099784D01DE0112D07DA00F09BF93032E4
:1006200062556D1C50EA0102F5D1084302D00098D2
:10063000C8B10EE00021681E05E0235C625C6354D3
:100640002254401E491C8142F7DBAB46A81B401ECA
:100650000990002004F80B000B98099AC0F8088054
:10066000C0E9002B7AE711264FF0000857E72DE983
:10067000F04F88460446D21D22F0070191B0D1E91F
:100680000001CDE90A0101F077FA02460B98C00F8C
:1006900001D02D2007E02068810701D52B2002E042
:1006A000202101EAC000032A099001D0072A05DBB6
:1006B00003464146204600F093F90BE1207880067E
:1006C00001D5E06900E00620B8F1650F814606D04B
:1006D000B8F1660F18D0B8F1670F70D131E0002083
:1006E000B9F1110F009001DB112301E009F10103C1
:1006F0000AAA01A90CA8FFF7E2FEDDE90C700026AA
:1007000009F10105834647E001204B4600904FF078
:1007100000470AAA01A90CA8FFF7D1FEDDE90DB038
:100720000C995D46002610B909F101000D18B9EBCE
:10073000050003D4C0F1FF3609F10105A5EB09005E
:100740002BE0B9F1010F01DA4FF001090020B9F1F6
:10075000110F0090484601DD112300E003460AAA6C
:1007600001A90CA8FFF7ABFEDDE90C704D46002691
:100770008346207800070AD4AB4500DA5D4601A81D
:10078000012D04DD411911F8011C302907D04F4516
:1007900002DA17F1040F04DA012082460FE06D1E21
:1007A000EEE7002F02DCED1B3E4403E0781CA8427C
:1007B00000DD7D1CB81B00F1010A4FF000472078D6
:1007C000000703D4AA4501DB4FF0FF3A0021B7F13F
:1007D000004F0DF143088DF8431024D002202B2345
:1007E000002F01DA7F422D230A21021EA0F1010011
:1007F00000DC5FB197FBF1FC97FBF1F201FB1C7C85
:1008000017460CF1300C08F801CDEEE7A8F1010015
:1008100003702188090501D5452100E06521A0F17B
:10082000010800F8011C09980FA9A1EB0807FF1D9A
:1008300000B10120411901EBEA70A1693844081A9E
:10084000401EA0612078C00602D42046AFF300808D
:10085000099828B1D4E901219047206A401C206200
:100860002078C00622D52046AFF300801EE0002E7F
:1008700004DBB34502DD01A8805D00E03020D4E94F
:1008800001219047206A401C2062761CAAF10100D9
:100890005FEA000A0AD100F055F8C0680168405CC0
:1008A000D4E901219047206A401C2062281EA5F14E
:1008B0000105DCDC07E0D4E9012118F8010B9047C1
:1008C000206A401C2062381EA7F10107F3DC204695
:1008D000AFF30080032011B041E6000001694A1C1B
:1008E00002610878704700B58FB0CDE90131002171
:1008F000059105497944CDE9031011466846FFF793
:10090000EFFC0FB000BD0000E5FFFFFF0A6802F832
:10091000010B0A60704710B5436913B1AFF3008053
:1009200001E0FFF777FC012010BD127800F12401EF
:100930000A7000224A700122EDE711684FF0FF3281
:10094000E9E7000000487047300000200048704789
:100950001000002030B5B0F10A024FEA900E71F19C
:1009600000034EEA817EB0EB0E0061EB91014FEA8D
:10097000101E4EEA017E10EB0E0041EB11114FEA02
:10098000102E4EEA016E10EB0E0041EB11214FEAE2
:10099000104E4EEA014E10EB0E0041EB1141401893
:1009A00041F100014FEAD00040EA41704FEAD10125
:1009B00010EB80054FEA810444EA907444EB010493
:1009C0006D1944EB0404521BA3414FF0000348BFD0
:1009D0000A3200D530BD401C41F1000130BD00009D
:1009E0002DE9F0411F46044603260168072A01F459
:1009F000006004DB08B116A505E016A503E008B108
:100A000015A500E015A521F010002060A069C01E0A
:100A1000A0610FB1401EA0612046AFF300804FB12E
:100A2000D4E9012138469047206A401C2062C01C4E
:100A3000206206E0206AFAE7D4E9012115F8010BEB
:100A40009047761EF8D22046AFF30080BDE8F081D3
:100A50004E414E006E616E00494E4600696E660062
:100A60002DE9F047814616468AB0354878440DC8CE
:100A70008DE80D0032487844801C03AC0DC884E832
:100A80000D0041F69B300844372190FBF1F290FBBA
:100A9000F1F5A5F1800501FB12041B3C02D564426F
:100AA000012000E00020DFF898A080460027FA44EB
:100AB000AAF1BE0A0EE0E0070AD03246684607EB0C
:100AC000470101230AEB810100F046FB8DE8070096
:100AD00064107F1C002CEED1194F7F44AE3F19E00B
:100AE000E80715D007EB04100DF1180A90E80E0086
:100AF0008AE80E00C068F04201D198190890324689
:100B0000012306A903A800F027FB03AB83E8070035
:100B10006D10641C002DE3D14FF00103324669468D
:100B2000B8F1000F03A802D000F001FB01E000F0D3
:100B300013FBC9E90001C9F808200AB0BDE8F08735
:100B4000C426000000487047100000207546FFF7DB
:100B5000F9FFAE4605006946534620F0070085467A
:100B600018B020B5FFF730FBBDE820404FF000067D
:100B70004FF000074FF000084FF0000B21F0070185
:100B8000AC46ACE8C009ACE8C009ACE8C009ACE8C8
:100B9000C0098D46704710B50446AFF3008020466B
:100BA000BDE81040FFF7FCBA4FF0013C50F8042BB1
:100BB00051F8043B9A4221D1A2EB0C03934313EA70
:100BC000CC1317D150F8042B51F8043B9A4215D19D
:100BD000A2EB0C03934313EACC130BD150F8042B74
:100BE00051F8043B9A4209D1A2EB0C03934313EA58
:100BF000CC13DBD04FF00000704700BFD01A01BA11
:100C0000B1FA81F101F0180122FA01F0CB40C1F1F3
:100C10002001DBB2C0B2C01A2CFA01F3D11A914301
:100C200011EAC311E6D1704701491820ABBEFEE7B7
:100C30002600020070475FEA400C08BF91F0000FE9
:100C40004FEA8C234FEAC12243EA51514FEA1C502C
:100C500018BF00F5F0404FEA300018BF41F00041E6
:100C60005FEA6C5C00F02980BCF1FF3F08BF40F0F8
:100C700080407047130C06BF12044FF0100C4FF069
:100C8000000C130E04BF12020CF1080C130F04BF6A
:100C900012010CF1040C930F04BF92000CF1020C32
:100CA000D30F04BF52000CF1010C11464FF00002AB
:100CB000A0F11F00A0EB0C00704711F0004F08BF1F
:100CC000704731F000413FF4D5AF0B0C06BF09046B
:100CD0004FF0100C4FF0000C0B0E04BF09020CF18A
:100CE000080C0B0F04BF09010CF1040C8B0F04BF9F
:100CF00089000CF1020CCB0F04BF49000CF1010C70
:100D0000CCF12003A0EB0C0022FA03F302FA0CF260
:100D100041EA030100F10100704720F07F4C80EAB6
:100D2000030023F07F47ACEB070303F57C5300F08F
:100D3000004003F1FF032DE980494FEA154B09B448
:100D40004FEA144325EA0B4E24EA03480FF2042627
:100D500006EB132749083E785FEA320203FB066779
:100D6000C7F5000707FB06F64FEA54374FEAD646A9
:100D700006F1020607FB066CCCF1005C4FEA1C474B
:100D80002CEA074C07FB06F40CFB06F504EB1546B2
:100D90004FEA961634BF00204FF000404FEAD1379B
:100DA00006FB07FC4FEA1C4C0CFB0BF7D21B03FBAA
:100DB0000CF761EB07010CFB0EF7B0EB074072EB91
:100DC00017420CFB08F734BFA2EB0742B2EB074215
:100DD00061EB17414FEA0C444FEA910706FB07FC11
:100DE0004FEA1C4C0CFB0BF7B0EBC74072EB5732D1
:100DF00003FB0CF734BFA2EBC742B2EBC74261EB77
:100E000057310CFB0EF7B0EBC70072EB57720CFBBF
:100E100008F734BFA2EBC702B2EBC70261EB577110
:100E2000039F4FEA816141EA921104EBCC044FEA3F
:100E3000D1374FEA826206FB07FC42EA90124FEA82
:100E400080604FEA1C4C0CFB0BF7D21B03FB0CF72A
:100E500061EB07010CFB0EF7B0EB074072EB17429A
:100E60000CFB08F734BFA2EB0742B2EB074261EB81
:100E700017414FEA8C554FEA910704EB9C2406FB7F
:100E800007FC4FEA1C4C0CFB0BF7B0EBC74072EBB6
:100E9000573203FB0CF734BFA2EBC742B2EBC74299
:100EA00061EB57310CFB0EF7B0EBC70072EB5772DA
:100EB0000CFB08F734BFA2EBC702B2EBC70261EB31
:100EC000577115EB4C254FEA816141EA92114FEAC7
:100ED00082624FEAD13742EA901206FB07FC44F1E6
:100EE00000044FEA80604FEA1C4C0CFB0BF7D21B4E
:100EF00003FB0CF761EB07010CFB0EF7B0EB0740AF
:100F000072EB17420CFB08F734BFA2EB0742B2EBBF
:100F1000074261EB174115EB1C154FEA813141EA9D
:100F200092414FEA823242EA90424FEA80304FEAE1
:100F30000C7644F1000448EA03434EEA0B484FF0B4
:100F4000000EB2EB080C71EB030724BF6246394672
:100F50004EEB0E0E4FF0000B0018524149414BEB87
:100F60000B0BB2EB080C71EB03077BF1000B24BFFA
:100F7000624639464EEB0E0E4FF0000B0018524100
:100F800049414BEB0B0BB2EB080C71EB03077BF108
:100F9000000B24BF624639464EEB0E0E51EA0207A3
:100FA00018BF46F0010616EB0E7655F1000254F11B
:100FB000000103D5BDE88901BDE80088BDE88901CD
:100FC000BDE80048B619524141EB0101A3F101030C
:100FD000704780807F7E7D7C7B7A797877767675A6
:100FE0007473727171706F6E6E6D6C6C6B6A6A691E
:100FF0006868676666656464636362616160605FB8
:101000005F5E5E5D5D5C5C5B5B5A5A595958585730
:101010005756565555555454535352525251515098
:1010200050504F4F4F4E4E4D4D4D4C4C4C4B4B4BEB
:101030004A4A4A4949494848484747474746464631
:10104000454545444444444343434342424242416C
:101050004141002B9C4630D477002BD01CB54FEA81
:10106000370703B44FF010004FF01001BAF1000F32
:1010700006D0BCF1000FDCBF40F0080040F00801D2
:101080004FF000000FBCBDE810400BF1010BBBF1AD
:10109000010F08BF5FEA170722BF12F1010211F129
:1010A00001014FF0004143F1000300F0004043EA2A
:1010B00000007047F9D35708D0E746EA064613F117
:1010C000400F4FEA16461FDD13F1200FDFBF164316
:1010D0000A46002120335B42BED0C3F1200746EA16
:1010E000064602FA07F74FEA164646EA0706C3F134
:1010F000200722FA03F201FA07F721FA03F14FF071
:10110000000342EA0702A7E746EA020646EA064665
:101110004FEA164646EA0106BCBF46EA0646360CCA
:101120004FF000034FF000024FF0000194E72DE96B
:10113000804C9A46934670B491E8380007C831EA6B
:10114000400C48BF34EA430C03D5FFF7E6FDFFF738
:1011500080FFF0BCBDE8008C2DE9804C9A46934698
:1011600070B491E8380007C810F0804F08BF13F042
:10117000804F03D100F005F8FFF76BFFF0BCBDE82E
:10118000008C20F07F4780EA030023F07F4C07EBC0
:101190000C03A3F57C5300F00040A3F1FE0392F092
:1011A000000F00F0B38095F0000F00F077802DE97C
:1011B00001494FEA11404FEA144621EA004800FB7A
:1011C00006FC24EA064708FB06F607FB08F800FBC6
:1011D00007F718EB06484CEB164C4FEA124B18EB8E
:1011E00007484FEA15464CEB174022EA0B4E0BFB23
:1011F00006FC25EA06470EFB06F607FB0EFE0BFB78
:1012000007F71EEB064E4CEB164C4FF000061EEB9C
:10121000074E4CEB174B18EB0B0840F1000018EB96
:101220000E0B58EB000840F100008F1A4FF0000140
:101230003CBFC943661B14BFB5EB040C00213CBF87
:10124000C943F61B4FEA17444EEA8E0E27EA0445BF
:101250004FEA1C4704FB07622CEA074C05FB07F723
:101260000CFB05F604FB0CFC16EB074642EB1742A1
:1012700016EB0C4642EB1C421BEB060658EB020237
:10128000414146EA9E0601D5BDE80189B6195241A1
:1012900041EB0101A3F10103BDE801894FEA1445C7
:1012A0004FEA114724EA054621EA074C05FB07F4FB
:1012B00006FB07F70CFB06F105FB0CFC11EB0741E5
:1012C00044EB17444FEA124711EB0C4144EB1C442A
:1012D00022EA074C05FB07F206FB07F70CFB06F6B4
:1012E00005FB0CFC16EB074642EB174216EB0C46CF
:1012F00042EB1C456A1854F1000148BF7047B6190B
:10130000524141EB0101A3F10103704795F0000F39
:1013100037D04FEA11424FEA144721EA024624EA45
:10132000074C02FB07F106FB07F70CFB06F402FB78
:101330000CFC14EB074441EB17414FEA154714EB43
:101340000C4441EB1C4125EA074C02FB07F506FB68
:1013500007F70CFB06F602FB0CFC16EB074645EB09
:10136000174516EB0C4645EB1C42121951F10001D2
:1013700048BF7047B619524141EB0101A3F1010387
:1013800070474FEA14454FEA114724EA054621EA1F
:10139000074C05FB07F106FB07F70CFB06F24FF0C5
:1013A000000605FB0CFC12EB074241EB174112EB68
:1013B0000C4251EB1C4148BF7047921841EB0101B0
:1013C000A3F101037047000010B5044619492046F7
:1013D00001F0B0FC01D218A010BD1849204601F060
:1013E000A9FC01D216A0F7E71649204601F0A2FC9D
:1013F00001D215A0F0E71549204601F09BFC01D26F
:1014000013A0E9E71349204601F094FC01D212A091
:10141000E2E71249204601F08DFC01D210A0DBE783
:101420001049204601F086FC01D20FA0D4E702A0AB
:10143000D2E700000000F0414200000000007042CE
:10144000444200000000F042440000000000164347
:10145000444E0000000052434E0000000000704364
:10146000544E000000009643540000002DE9F34F55
:1014700087B08A461848006801F08EFB06460F4682
:10148000504601F089FBCDE90001079801F084FB8B
:101490008046DDE9002300F0FDFC00220F4BCDE982
:1014A000020101F085F932463B46CDE9040100F026
:1014B000D3FF044600F0E2FE83460021584601F0C7
:1014C00039FC04D25946064801F0B4FC834658461C
:1014D00009B0BDE8F08F00000000002000806640E9
:1014E000000034430B48C06940F001000949C8615D
:1014F0004FF6FF70890488854720088508460088D4
:1015000040F0010008800846808A40F0010088828F
:10151000704700000010024010B50346002404E0AC
:101520004FF47A7000F004F8641C9C42F8D310BDAC
:1015300000214FF08042918400BF4FF08041898CA0
:101540008142FAD3704700002248806940F00800C9
:10155000204988610846C06940F40010C861084607
:10156000806940F0010088611B48006840F04C40F1
:10157000194908600846006840F04C500860164859
:101580000C30006840F0C00013490C31086013486B
:10159000008840F40040114908800846008820F483
:1015A00000400880081D008840F02400091D0880C4
:1015B0000A481C30008840F0B40008491C310880FB
:1015C0002520091D08800548008840F001000349D6
:1015D0000880704700100240000C01400054004099
:1015E00030B5354C248844F48074334D2C8000BFD2
:1015F000314C1434248804F00104002CF8D0440049
:101600002D4D10352C8000BF2B4C1434248804F051
:101610000204002CF8D0284C18342488264C1034AE
:10162000218000BF244C1434248804F08004002C52
:10163000F8D0214C248844F480741F4D2C8000BFC6
:101640001D4C1434248804F00104002CF8D001242B
:1016500004EB4004184D10352C8000BF164C143498
:10166000248804F00204002CF8D0134C1834248889
:1016700019E0012B0AD1104C248824F480640E4D0B
:101680002C802C46248844F400742C800A4C14349A
:10169000248804F0400434B1074C103424881460CA
:1016A000121D5C1EE3B2002BE3D1034C248844F4EA
:1016B0008064014D2C8030BD0054004010B51D4B9E
:1016C0001B8843F480731B4C238000BF194B1433D9
:1016D0001B8803F00103002BF8D04300154C103495
:1016E000238000BF134B14331B8803F00203002B2D
:1016F000F8D0104B18331B880E4B1033198000BFE5
:101700000C4B14331B8803F08003002BF8D0094BDB
:1017100010331A8000BF074B14331B8803F080037B
:10172000002BF8D0034B1B8843F40073014C23803B
:1017300010BD0000005400404206110E084A1180FE
:1017400000BF074A121D128802F00202002AF8D0D8
:10175000034A121D1288024A08321288704700009C
:10176000105800401E48C06940F480001C49C86100
:101770000846806940F0080088610846806940F0AA
:10178000010088611748006840F44C401549086022
:101790000846006840F44C5008601348008840F444
:1017A0000040114908800846008820F40040088065
:1017B0002420091D0880081D008840F48040091D70
:1017C0000880B42008491C3108802520091D0880A4
:1017D0000548008840F00100034908807047000078
:1017E00000100240040C01400058004010B50B48A6
:1017F000008840F48060094908800846008840F469
:10180000807008800120FFF787FE00BF0348143076
:10181000008800F001000028F8D010BD00580040FA
:1018200070B506460C461546FFF7E0FF3046FFF759
:1018300083FF0CE000BF0B48008800F08000002808
:10184000F9D020780749091F0880641C6D1E002DFF
:10185000F0D100BF0348008800F004000028F9D050
:1018600070BD0000145800402DE9F04F85B047F6D8
:10187000FF74E5432646A946A246AB4602AA03A941
:1018800004A800F0B6F80120FFF746FE00272DE07F
:1018900002AA03A904A800F0ACF8BDF91000A04208
:1018A00001DABDF91040BDF91000A84201DDBDF913
:1018B0001050BDF90C00B04201DABDF90C60BDF961
:1018C0000C00484501DDBDF90C90BDF908005045FC
:1018D00001DABDF908A0BDF90800584501DDBDF9E0
:1018E00008B04FF47A70FFF723FE7F1C42F21070AD
:1018F0008742CDDB281900F043FF00224FF08043E0
:10190000CDE9000100F0A8FD074600F0B7FC124940
:10191000086009EB060000F033FF074600224FF095
:10192000804300F099FDCDE9000100F0A7FC0B49D0
:1019300008600BEB0A0000F023FF074600224FF07F
:10194000804300F089FDCDE9000100F097FC0449D7
:10195000086005B0BDE8F08F0400002008000020FA
:101960000C0000202DE9FE4304460D4616466A464B
:1019700001A902A800F03DF8BDF9080001F0C2F984
:10198000804615480168404601F054FA074601F0C8
:101990009DF900B22080BDF9040001F0B3F9804642
:1019A0000E480168404601F045FA074601F08EF9FD
:1019B00000B22880BDF9000001F0A4F98046084873
:1019C0000168404601F036FA074601F07FF900B29F
:1019D0003080BDE8FE8300000400002008000020E5
:1019E0000C00002000B51D2209210D20FFF766FE26
:1019F00000BD70B586B006460C46154606236A46FD
:101A000000210D20FFF7ECFDDDE9000140EA012097
:101A100000B23080DDE9020140EA012000B22080FE
:101A2000DDE9040140EA012000B2288006B070BD63
:101A300010B500F001F810BD0CB500200190009029
:101A40003348006840F480303149086000BF3048B6
:101A5000006800F4003000900198401C019000984C
:101A600018B90198B0F5A06FF1D12948006800F4C9
:101A7000003010B10120009001E00020009000989B
:101A8000012843D12348006840F010002149086034
:101A90000846006820F0070008600846006840F02B
:101AA000020008601A4840681949486008464068C2
:101AB00048600846406840F48060486008464068D6
:101AC00020F47C1048600846406840F4E810486004
:101AD0000846006840F08070086000BF0C4800684D
:101AE00000F000700028F9D00948406820F0030099
:101AF000074948600846406840F00200486000BF5F
:101B00000348406800F00C000828F9D10CBD000023
:101B1000001002400020024010B51348006840F059
:101B200001001149086008464068104908400E4904
:101B30004860084600680E4908400B49086008469E
:101B4000006820F4802008600846406820F4FE0009
:101B500048604FF41F008860FFF76AFF4FF0006095
:101B60000449086010BD0000001002400000FFF8AA
:101B7000FFFFF6FE08ED00E0490050EAC12018BF63
:101B800004204A0D18BF40F0010040F2FF72B2EB92
:101B9000515F08BF40F00200012808BF05207047D0
:101BA0002DE9F0414F1E00EBC7010446D1E90001C9
:101BB00015461E4637F006020DD02A46334600F081
:101BC000F7FD7F1E04EBC703D3E9002300F088FB79
:101BD00037F00602F1D1022F25D0042F13D0062FA3
:101BE00018BFBDE8F0812A46334600F0E1FDD4E994
:101BF0000A2300F075FB2A46334600F0D9FDD4E9EC
:101C0000082300F06DFB2A46334600F0D1FDD4E9ED
:101C1000062300F065FB2A46334600F0C9FDD4E9EF
:101C2000042300F05DFB2A46334600F0C1FDD4E9F1
:101C3000022300F055FB2A46334600F0B9FDD4E9F3
:101C40000023BDE8F04100F04BBB012201F09BB93D
:101C500000F046BB024A0020110701F094B90000D1
:101C600001FDFFFF30380A2801D201207047002013
:101C7000704700002DE9F84F04460D4621F0004062
:101C800000917349814211DC7249884201DC06D11E
:101C90002CB120462946BDE8F84FFFF7D6BF6E4865
:101CA000002DCCBF6D496E49BDE8F88F6D4981426A
:101CB00011DD6D498142D8BF4FF0FF366DDD204602
:101CC0002946FFF759FF042808BFFFF7C3FF204646
:101CD0002946BDE8F88F6549654F25F000458142EA
:101CE00033DD6449814219DD002632464FF08043DE
:101CF0002046294600F0F4FA80468A460122204612
:101D0000294601F040F900223B4600F05BFE4246C6
:101D1000534600F0A1FB04460D463EE0012600229A
:101D2000BA463B462046294600F0DAFA80460F467E
:101D3000002253462046294600F044FE42463B46D8
:101D400000F08AFB04460D4627E04B4981421BDD2B
:101D5000DFF828A10226002253462046294600F03B
:101D600027FD00223B4600F0BBFA80460F460022CA
:101D700053462046294600F025FE42463B4600F0E9
:101D80006BFB04460D4608E0032622462B46002046
:101D90003B4900F061FB04460D4622462B461046A7
:101DA000194600F005FD8B46824602460B4600F0C0
:101DB000FFFC07460246334888460B460621784416
:101DC000FFF7EEFE52465B4600F0F2FC82462E48DC
:101DD0008B463A46434605217844FFF7E1FE3A46F2
:101DE000434600F0E5FC02460B46002E504659469D
:101DF0000CDA00F075FA22462B4600F0D9FC01B04F
:101E000022462B46BDE8F04F00F0D0BD00F068FA46
:101E100022462B4600F0CCFC1C4A7A4402EBC60357
:101E2000D3E9002300F0CEFD22462B4600F0CAFD88
:101E3000174A7A4402EBC603D3E9002300F0B6FD4B
:101E4000009A002AB8BF81F00041BDE8F88F000079
:101E5000000010440000F07F182D4454FB21F93F8E
:101E6000FB21F9BF0000DC3F0000203E0000F33FF3
:101E70000000F03F0000E63F008003400000F83F14
:101E80000000F0BFBE1200007C1200001A12000019
:101E9000E21100002DE9F04D9446CCF1000423F04E
:101EA00000464CEA0404594F46EAD4749A468846E0
:101EB00021F00042BC4206D8454240EA050442EA0D
:101EC000D474BC4204D9BDE8F04D6246FFF7C0BEF1
:101ED000AAF14055A5F17F6555EA0C040BD0022408
:101EE00004EAAA744A4DDFF82CE144EAD87452EAB5
:101EF000000B04D00CE0BDE8F04DFFF7BBBE002C9A
:101F000014BF012CBDE8F08D022C30D0032C32D050
:101F100056EA0C0B0AD0BE4220D1BA4209D126F0B3
:101F2000804622F080423346114617E000291ADB32
:101F300025E0DFF8E4B0FB44002C04BFDBE900013E
:101F4000BDE8F08D012C02BFDBE9000181F000410A
:101F5000BDE8F08D022C0AD0032C0CD0BA4212D16D
:101F6000B8F1000F0BDA2A482C49BDE8F08D28465D
:101F70002B49BDE8F08D28467146BDE8F08D244818
:101F80002849BDE8F08D921B12153C2AC4BF204F92
:101F9000244E10DCBAF1000FBEBF12F13C0F002737
:101FA0003E4608DB624600F057FA21F00041FFF799
:101FB00061FE07460E4694B1012C08BF86F000462C
:101FC0000DD0194A194B022C3846314615D000F075
:101FD000F9FC2A46BDE8F04D114B00F0F3BC00229D
:101FE00013463846314600F08FFB04BF0220FEF74F
:101FF00006FA38463146BDE8F08D00F0E3FC2A468B
:10200000BDE8F04D064B00F0D1BC00000000F07FB1
:10201000182D4454FB2109C076110000FB21F9BFA3
:10202000FB210940FB21F93F075C143326A6A13CA4
:1020300010B5802000F056F8002403E0202000F0C6
:102040006EF8641C462CF9DB10BD10B53220FFF78A
:1020500063FA302000F046F80520FFF75DFA3020E3
:1020600000F040F89620FFF763FA302000F03AF8CD
:102070000A20FFF751FA202000F034F80A20FFF779
:102080004BFA282000F02EF80120FFF745FA08202F
:1020900000F028F80120FFF73FFA012000F022F8B5
:1020A0000120FFF739FA0120FFF736FA062000F089
:1020B00019F80120FFF730FA0C2000F013F810BDDA
:1020C00070B505460C4615B1012D06D102E044F06D
:1020D000800402E044F0C00400BF00BFE0B200F0A2
:1020E00001F870BDF8B5044604F0F005F02000EAF0
:1020F000041645F00C008DF8000045F008008DF83E
:10210000010046F00C008DF8020046F008008DF842
:102110000300042269462720FFF782FBF8BDF8B5CB
:10212000044604F0F005F02000EA041645F00D0026
:102130008DF8000045F009008DF8010046F00D0013
:102140008DF8020046F009008DF80300042269466C
:102150002720FFF765FBF8BD10B5044603E014F82F
:10216000010BFFF7DCFF20780028F8D110BD00003C
:102170008EB0FFF7B7F9FFF7E7F9FFF7F3FAFFF7CC
:1021800064FFFFF72FFC0BAA0CA90DA8FFF731FC89
:1021900000210846FFF794FF22A0FFF7DDFFFFF7BD
:1021A00063FBFFF745FF3BE00BAA0CA90DA8FFF767
:1021B000D9FB00210846FFF783FFBDF93030BDF998
:1021C00034201DA103A8FEF711F803A8FFF7C4FFF0
:1021D000BDF9300000F096FD0546BDF9340000F071
:1021E00091FD06462946FFF741F904462046FFF7D0
:1021F000EBF8074600210120FFF762FF204600F0C0
:10220000CBFC3A46CDE900010EA103A8FDF7EEFF95
:1022100003A8FFF7A1FF4FF4FA70FFF77DF900BFA5
:10222000C2E700005761697420666F722063616CB9
:102230006962726174650000582025642C20592061
:102240002564000025733A20252E32660000000028
:1022500010B500290AD00878002807D0054878442E
:10226000FEF7A2FC002801D0002010BD02487844EF
:1022700010BD00000E0F0000060F000021F000420C
:10228000A2F16052B2F5801F01F0004328BFD2F1E5
:102290007F6C0BD95FEA001C43EAC20242EB50702C
:1022A00018BF704728BF20F001007047B2F5801FAB
:1022B000BCBF184670474FEA410C1CF5001F02D204
:1022C000084600F0B1BD70B500F01CFB00000089AD
:1022D000FFF7F6BF4FF00040A0F580007047000008
:1022E00010B591EA030F48BF83F0004300F17283F9
:1022F000841A71EB030C05D2121943EB0C03001B7B
:1023000061EB0C01DFF824E14FEA1154A4EB135CFC
:102310001EEA430F18BF9EEA445F73D023EA0E0300
:10232000DCF1200E21EA045143F4801332D322FA67
:102330000CFE10EB0E0023FA0CFE41EB0E01CCF16B
:10234000200E03FA0EFE10EB0E0051F10001B1F564
:10235000801FCCF1200E32D201EB045112FA0EF2A2
:10236000BDE8104058BF7047401C38BF5FEA4202CA
:1023700018BF7047002814BF20F0010041F1000190
:102380004FEA410313F5001F38BF7047A1F1C04168
:1023900000F006BB012A43EB0302ACF1200CDCF198
:1023A0001F0E32BF4FF0000E23FA0CF310EB0300A8
:1023B00041EB0451B4EB115FD0D0A1EB045101F516
:1023C000801149085FEA300001EB04510ED350F14F
:1023D000000038BF12FA0EFE08D1BDE81040C9E770
:1023E000401C38BF5FEA4202CAD1C3E7BDE81040D3
:1023F0004FEA410313F5001F38BF7047A1F1C041F8
:1024000000F0CEBA9EEA445F08D011EA5E0FBDE844
:10241000104004BF01F0004100207047BDE81040AB
:1024200070B500F06FFA00BF64FBBE3E0000E0FF35
:1024300002494FF0000000F074BD00BF0000F87FBB
:10244000491058BFC1F140415B1058BFC3F1404330
:102450008B42EFF3008070472DE9C04130B4DFF8C4
:10246000A0C23CEA111418BF3CEA131400F0EC803F
:1024700081EA03051CEA111444EAD57418BF1CEA6A
:10248000131500F0C780A4EB05044FF0004545EAA2
:10249000C12145EAC32341EA505143EA525304F1B2
:1024A0007F74994204F500344FEAC0204FEAC222FB
:1024B00008BF904200F09C804FEA13650FF240166F
:1024C000765D4FEA134506FB05F7C7F1807706FBFB
:1024D00007F74FEAD737A7FB03687642C8F580387D
:1024E000A7FB06CE38BFA8F1010807FB08E64FF0AE
:1024F000000EA6FB028CE6FB03CEDCF1000CCEF155
:10250000004E38BFAEF1010EA6FB0C584FF000078D
:102510004FF00005E6FB0E87A1FB08C6A0FB07CE27
:1025200016EB0E0645F10005E1FB076515F1E04EDF
:102530007EBFA4F580345FEA46066D4116F1800740
:1025400045F100054FEA17274FEA066647EA056797
:10255000A6F1DE46B6F1805F4FEA15251FD9384651
:1025600024F0010C05EBC471BCF1FE6F01EB0C1102
:1025700002D8F0BCBDE8008124425CBF01F5801E9A
:102580009EEAC47F02D4F0BCBDE80081244238D466
:10259000F0BCA1F1C041BDE8004100F001BA4FEA32
:1025A000D22242EA43524FEAD323A7FB02864FEAE4
:1025B000D02040EA415007FB03661EEA0E0F4FEAA7
:1025C000D12105FB026658BFA6EB0056B6EB0056BC
:1025D0004FEA520E4EEAC37E18EB0E0E56EB530E28
:1025E000BDD518EB02085E417F1C55F10005B6E72A
:1025F0004FF480154FF000074FF000064FF0000831
:10260000ADE7F0BC4FF0000001F1C04101F0004126
:10261000BDE8008111EA0C1F0CEA131500D00CE094
:1026200013EA0C1F00F025804FF00000F0BC81EA97
:10263000030101F00041BDE80081F0BCBDE80041AC
:1026400081EA030100F0ACB9F0BCBDE8004170B50F
:1026500000F058F9097EFC3E00F007B881EA03015A
:102660004FF0000001F00041704781EA030100F0E3
:1026700097B9F0BCBDE800414FF000002149704718
:10268000FFFDFBF9F7F5F4F2F0EEEDEBE9E8E6E437
:10269000E3E1E0DEDDDBDAD8D7D5D4D3D1D0CFCDBE
:1026A000CCCBCAC8C7C6C5C4C2C1C0BFBEBDBCBBF7
:1026B000BAB9B8B7B6B5B4B3B2B1B0AFAEADACABF2
:1026C000AAA9A8A8A7A6A5A4A3A3A2A1A09F9F9ECC
:1026D0009D9C9C9B9A99999897979695959493937E
:1026E000929191908F8F8E8E8D8C8C8B8B8A898915
:1026F0008888878786858584848383828281818098
:102700000000FF070000F87F51EA030C17D41CF506
:10271000801F58BFBCF5801F00F10680994218BF8A
:10272000704708BF9042704707D711F5801F58BF08
:1027300013F5801F19D499427047894270471CF5E0
:10274000801F08D5BCF5801FF7D58B4218BF704796
:1027500008BF824270474FF4001C1CEB410F38BF8A
:102760001CEB430F01D28B42704770B500F0CAF8E2
:10277000922449004FF000514FF08053FFF760BEA4
:1027800010F0004248BF4042B0FA80F310FA03F163
:102790000AD0C3F11D0303F580634FEA415002EBF9
:1027A000035202EBD12170474FF000007047000048
:1027B000DFF848C170B51CEA111E1EBF1CEA1315D4
:1027C0009EEA0C0F95EA0C0F00F06F8081EA03047B
:1027D00023EA4C134EEAD47E21EA4C1141F48011D5
:1027E00043F48013AE44A1FB024CA0FB0365AEF1A1
:1027F0007F7E361955EB0C05A1FB034C4CF1000311
:10280000A0FB021C16EB0C06654153F100030942C4
:1028100018BF46F0010613F4007F0BD14FEA0331D5
:102820004FEA0530340341EA155140EA16506FF083
:1028300003020AE04FEAC3214FEAC520F40241EA4D
:10284000555140EA56506FF0020202EB2E4201EB66
:10285000025585EACE710AD05FEA440C18BF24F015
:10286000004450F1000041F1000120EAD47040F230
:10287000FE7C624500D270BDA84214BF4FF0804478
:102880004FF04044002E08BF0024BEF1806FA8BF67
:10289000A1F1C041BDE8704080F282804FF000009D
:1028A00001F1C04101F0004170479EEA0C0F0CEAB3
:1028B000131518BF95EA0C0F06D04FF0000081EAFF
:1028C000030E0EF0004170BD00F01CF88900013EBF
:1028D00000F007B800F009B84FEA430C5FEA5C5C0F
:1028E00008D081EA030100F05BB84FEA410C5FEACF
:1028F0005C5CF6D14FF00000014970470000FF0713
:102900000000F87F0EF1020E2EF0030E5EF8046B4D
:10291000364205D4012A43EB030515F5001F12D8F2
:10292000012841EB010C1CF5001F0CD80ED14FEA19
:10293000D17C15F5001F0CEB4C0C0CF1020C08BF00
:102940004CEBD37C04E04FF0080C01E04FEAD37C61
:102950000CEB4C0526FA05F606F00706B6F1040C5A
:1029600006D20EEB860CBDE870404CF0010C6047BF
:10297000DFE80CF0090B02024FF000414FF00000BD
:10298000A1F5002170BD19461046012851EB010444
:1029900018BFD4F5001484BF002001F0004170BDC1
:1029A0000808A0F500114FEA3101704791EA030FC2
:1029B00010B581F000413FF59BAC83F0004300F07F
:1029C00009B8000010B591EA030F48BF83F0004337
:1029D0003FF58EAC841A71EB030C07D212198CF000
:1029E000004C43EB0C03001B61EB0C01DFF8A4E18E
:1029F0004FEA1154A4EB135C1EEA430F18BF9EEA82
:102A0000445F00F0B08023EA6E03524221EA045191
:102A1000C3EB6E0338BF5B1EDCF1200E25D322FA18
:102A20000CFE10EB0E0043FA0CFE41EB0E01CCF154
:102A3000200E03FA0EFE10EB0E0051F10001CCF156
:102A4000200E29D412FA0EF201EB0451BDE8104019
:102A500058BF7047401C1CBFB2F1004F70470028A0
:102A60000CBF491C20F00100704712EB020E43EB33
:102A7000030218BF4FF0010E4EEA4202ACF1200CE7
:102A8000DCF11E0E54D943FA0CFE10EB0E0051F18E
:102A9000FF31CCF11E0ED5D50EF1010E12FA0EFE4D
:102AA000404141EB010101EB445C5FEA5C5C10D901
:102AB00010EBDE7001EB045138BFBEF1004FBDE8F2
:102AC000104018BF704700280CBF491C20F00100BF
:102AD000704730D24FEAD42C11F5001124F4006471
:102AE0001BD0B1FA81F20B3AA41AA41ED2F1200332
:102AF000914030FA03F31943904001EBCC71002C64
:102B000001EB0451BDE81040A8BF704701F1C0417E
:102B10004FF0000001F000417047B0FA80F310FA66
:102B200003F100D110BDE41A173C4805C90AE4E7D7
:102B300001EB045110BD491001EB0451BDE81040F8
:102B40004FEA300002E04FF0000170474A0008BF32
:102B50000042F8D0B2F5001F28BF704701F00041D5
:102B60004FF0000070479EEA445F07D011EA5E0F05
:102B7000BDE8104004BF002100207047BDE81040B0
:102B800070B5FFF7BFFE00BF40DFF63E83F00041A7
:102B9000104670470000E0FF43004FEAD30C4FEAB5
:102BA0003C0C43401FBF40070CF1605113F0FE4F37
:102BB00070471CF0006F03D100200CF000417047FB
:102BC0000CF0004343EA507010B540EACC0000F02E
:102BD000E5F800BF000000924FEA0001FFF7E0BEF9
:102BE0004FF000414FF00000A1F5002170470000B8
:102BF00090EA010F48BF81F0004100F12281421AA2
:102C00003CBF801A89184FEAD0524FF07F4C1CEA23
:102C1000410FA2EBD15318BF9CEA026F00F03B803A
:102C20004FF0004C4CEA00204CEA012121FA03FC51
:102C300010EB0C0C1ED202F1FF325FEA1C2040EBBD
:102C4000C25038BF70471CF07F0F4FEA400C18BFCE
:102C5000BCF17F4F38BF7047C3F12003994008BFD4
:102C600020F00100BCF17F4F38BF7047A0F1C04099
:102C700000F0DAB84FEA3C00000A40EBC25028BF2F
:102C80001CF0FF0F4FEA400CE6D018BFBCF17F4F9D
:102C900038BF7047EAE79CEA026F05D010EA5C0F84
:102CA00008BF00F00040704710B500F077F800BF93
:102CB00064FBBE3E401058BFC0F14040491058BFB1
:102CC000C1F140418142EFF30080704741000B0E9B
:102CD000D3F19E0208D950F400034FEA032323FAEC
:102CE00002F048BF4042704710B500F057F800BFEF
:102CF00049922480002070476FF0004282EA200051
:102D00007047000010F0004148BF4042B0FA80F325
:102D100010FA03F2C3F19D030BD051EAC35101EB4A
:102D20001220530638BF704700F1010008BF20F0A1
:102D30000100704750EA010C00F113801CF5000FF0
:102D400058BFBCF5000F01D48842704707D710F573
:102D5000000F58BF11F5000F15D488427047894203
:102D600070471CF5000F04D5BCF5000FF7D5814264
:102D700070474FF0807C1CEB400F38BF1CEB410FBD
:102D800001D28142704710B500F008F89224490042
:102D90004FF000504FF08051FFF78CBF0EF1020E44
:102DA0002EF0030E5EF8044B244204D44FEA410295
:102DB000B2F17F4F11D84FEA4003B3F17F4F0CD8E7
:102DC0000ED14FEAD07CB2F17F4F0CEB4C0C0CF1E2
:102DD000020C08BF4CEBD17C04E04FF0080C01E082
:102DE0004FEAD17C0CEB4C0324FA03F404F0070403
:102DF000B4F1040C06D20EEB840CBDE810404CF08C
:102E0000010C6047DFE80CF0070802024FF00040B9
:102E1000A0F5800010BD0846420018BFD2F18072B4
:102E200088BF00F0004010BDFF2141EAD050C0052E
:102E30007047000090EA010F48BF81F000413FF564
:102E4000DEAE421A04D882F00042A0EB0200114428
:102E50004FEAD0524FF07F4C1CEA410FA2EBD15306
:102E600018BF9CEA026F4AD04FF0004C4CEA002099
:102E70004CEA012121FA03FCB0EB0C0C0FD412F048
:102E8000FE0F36D05FEA4C001DD5001240EBC25059
:102E900038BF70471CF03F0F18BF70470BE0A2F11E
:102EA00001025FEA1C2040EBC25038BF70471CF0A3
:102EB0007F0F18BF7047C3F12003994014BF401E15
:102EC00020F00100704780084FEA122308BF7047C6
:102ED000B0FA80FCA2EB0C02CCF1280C60FA0CF0EA
:102EE00093EA122F04BF00EBC25070474FEAC37041
:102EF0007047130A5FEADC1008BF7047F6E79CEAE8
:102F0000026F04D010EA5C0F08BF0020704710B5B4
:102F1000FFF744FF40DFF63E81F000407047FDF7C9
:102F2000A6BB0CF00F03092B08BF082000F0598046
:102F30000A2B0BD0082B18BF704708BF1CF0400F9E
:102F40000AD04FF000004FF0000170471CF0400F16
:102F500018BF4FF0004070471CF0100F08D020F051
:102F6000704300F07F4242EAD3014FEA437070475A
:102F700000F0604021F07F4242EA000201F07F4011
:102F800040EA727070474FF0FF0C4CF4E06C1CEAA2
:102F900011531CBF9CEA030C9445C2BFDA4201EBFB
:102FA00002517047002B0DD0BCF1000F0FD0002A4A
:102FB00001F00041A4BF41F0E04141F07F614FF0DA
:102FC0000000704701F000414FF00000704750EAE8
:102FD00001334FF09B0C18BF4CF0806C7FF428AA93
:102FE00070471CF4801F11D01CF4E02F03D06FEA4F
:102FF000CC31490070474FF04050EFF3008222F08F
:10300000704242EA000282F3008870474FF00000ED
:1030100070470000000000004FBB610567ACDD3F5A
:10302000182D4454FB21E93F9BF681D20B73EF3FEF
:10303000182D4454FB21F93FE2652F227F2B7A3C67
:10304000075C143326A6813CBDCBF07A8807703C20
:10305000075C143326A6913CC4EB98999999C9BF93
:10306000711623FEC671BCBF6D9A74AFF2B0B3BFC8
:103070009AFDDE522DDEADBF2F6C6A2C44B4A2BF88
:103080000D5555555555D53FFF8300922449C23FF4
:103090006E204CC5CD45B73F513DD0A0660DB13F28
:1030A000EB0D76244B7BA93F11DA22E33AAD903F3A
:1030B000000000000000000002400000000000A02E
:1030C0000000000005400000000000C800000000F3
:1030D0000C4000000000409C00000000194000006F
:1030E0000020BCBE0000000034400000BFC91B8EA1
:1030F00000000004B5400000504BCFD06607E2CF7F
:10310000010000006C4100003E8251AADFEEA734AE
:1031100001000000D9420000DCB5A0E23A301F9760
:10312000FFFFFFFFB4450000FD25A0C8E9A3C14F84
:10313000FFFFFFFFFF3F00000000008000000000D5
:10314000FF3F000000000080000000008831000800
:10315000000000201000000028010008983100083D
:103160001000002060060000440100081C00000060
:1031700043000000F8FFFFFF0C0000000E000000FD
:103180000F0000002E000000A60F494000000000C4
:08319000000000000000000037
:04000005080001AD41
:00000001FF
