:020000040800F2
:10000000980600208901000891010008930100086A
:100010009501000897010008990100080000000000
:100020000000000000000000000000009B0100082C
:100030009D010008000000009F010008B9070008AA
:10004000A3010008A3010008A3010008A301000800
:10005000A3010008A3010008A3010008A3010008F0
:10006000A3010008A3010008A3010008A3010008E0
:10007000A3010008A3010008A3010008A3010008D0
:10008000A3010008A3010008A3010008A3010008C0
:10009000A3010008A3010008A3010008A3010008B0
:1000A000A3010008A3010008A3010008A3010008A0
:1000B000A3010008A3010008A3010008A301000890
:1000C000A3010008A3010008A3010008A301000880
:1000D000A3010008A3010008A3010008A301000870
:1000E000A3010008A3010008A301000800F002F822
:1000F00000F03AF80AA090E8000C82448344AAF188
:100100000107DA4501D100F02FF8AFF2090EBAE885
:100110000F0013F0010F18BFFB1A43F0010318473B
:10012000C00D0000E00D0000103A24BF78C878C16F
:10013000FAD8520724BF30C830C144BF04680C60ED
:10014000704700000023002400250026103A28BF35
:1001500078C1FBD8520728BF30C148BF0B60704739
:100160001FB51FBD10B510BD00F031F81146FFF7E7
:10017000F7FF00F059FE00F04FF803B4FFF7F2FF6D
:1001800003BC00F057F800000948804709480047C1
:10019000FEE7FEE7FEE7FEE7FEE7FEE7FEE7FEE737
:1001A000FEE7FEE704480549054A064B7047000094
:1001B00075080008ED00000898000020980600204F
:1001C00098020020980200207047704770477546DB
:1001D00000F02CF8AE4605006946534620F00700B3
:1001E000854618B020B5FFF7DDFFBDE820404FF091
:1001F00000064FF000074FF000084FF0000B21F011
:100200000701AC46ACE8C009ACE8C009ACE8C009DD
:10021000ACE8C0098D46704710B50446AFF30080C6
:100220002046BDE81040FFF7A8BF00000048704717
:100230003400002001491820ABBEFEE72600020072
:100240007047000070B500F0C3FA13480068134A05
:10025000B0FBF2F1481EB0F1807F00D31BE0481ED6
:100260004FF0E022506150170F22002804DB1307E3
:100270001C0E0B4B1C5406E013071D0E094B00F01F
:100280000F04241F1D5500BF00204FF0E022906195
:100290000720106100BF70BD0C00002040420F001D
:1002A00000E400E018ED00E000B5024603E04FF482
:1002B0007A7000F005F8101EA2F10102F7D100BD1E
:1002C0000349086000BF024909680029FBD1704753
:1002D000080000202DE9F0410246002500260020FC
:1002E00000230024002791F803C00CF00F0591F8BB
:1002F00003C00CF0100CBCF1000F03D091F802C049
:100300004CEA050591F800C0BCF1000F31D014682B
:1003100000202BE04FF0010C0CFA00F3B1F800C004
:100320000CEA03069E4220D183004FF00F0C0CFA1A
:1003300003F7BC4305FA03FC4CEA040491F803C03C
:10034000BCF1280F06D14FF0010C0CFA00FCC2F8EA
:1003500014C00AE091F803C0BCF1480F05D14FF07A
:10036000010C0CFA00FCC2F810C0401C0828D1D3C4
:100370001460B1F800C0BCF1FF0F34DD54680020F8
:100380002EE000F1080C4FF0010808FA0CF3B1F868
:1003900000C00CEA03069E4221D183004FF00F0CEF
:1003A0000CFA03F7BC4305FA03FC4CEA040491F889
:1003B00003C0BCF1280F05D100F1080C08FA0CF8B5
:1003C000C2F8148091F803C0BCF1480F07D100F1C6
:1003D000080C4FF0010808FA0CF8C2F81080401C15
:1003E0000828CED35460BDE8F08121B1028842F4E0
:1003F0008062028004E002884FF6FF331A400280D8
:10040000704770B502460024002500230020958A1D
:10041000138B1B0445EA030626F07F4404EA010619
:100420008E4201D1012000E0002070BD21B1028880
:1004300042F00102028004E002884FF6FE731A4087
:100440000280704721B1028842F48072028004E089
:1004500002884FF6FF631A400280704721B102887C
:1004600042F40072028004E002884FF6FF531A4003
:10047000028070470CB502460020002301930093D0
:1004800000920B0F019321F07F41019B1BB1009B58
:100490001433009303E0090C009B18330093009B76
:1004A0001B680B400BB1012000E000200CBD0000D8
:1004B0002DE9F04385B004460D460026B1460427D9
:1004C000DFF8CC80A6884FF6C0700640684600F082
:1004D00095F8DDF808802F48B8FBF0F01FFA80F996
:1004E00046EA0906A68020884FF6FE710840208063
:1004F00000262949286888420CD828684000B8FBA3
:10050000F0F087B2042F00DA04273E4309F101001E
:10051000208427E0E8884BF6FF71884206D12868DE
:1005200000EB4000B8FBF0F087B209E0286800EB70
:10053000C00101EB0010B8FBF0F087B247F4804730
:10054000C7F30B0008B947F0010747F40040064322
:100550004FF4967009FB00F04FF47A7190FBF1F0C4
:10056000401C2084A683208840F00100208026883B
:100570004FF6F5300640A88869890843064326806F
:10058000A88929890843208105B0BDE8F0830000CF
:1005900000127A0040420F00A08601000146088A3E
:1005A000C0B2704712B141F0010102E04FF6FE7394
:1005B00019400182704701827047000029B1064A44
:1005C000D2690243044BDA6104E0034AD2698243F0
:1005D000014BDA61704700000010024029B1064A61
:1005E00092690243044B9A6104E0034A9269824390
:1005F000014B9A61704700000010024030B50021A5
:100600000022002400232D4D6D6805F00C0121B15E
:10061000042905D0082923D105E0294D056022E0F1
:10062000274D05601FE0254D6D6805F47012234DC0
:100630006D6805F48034022505EB92421CB9214D0A
:10064000554305600BE01D4D6D6805F400351DB187
:100650001C4D5543056002E0194D5543056002E00D
:10066000174D056000BF00BF144D6D6805F0F00127
:100670000909154D6B5C0568DD4045600F4D6D68DF
:1006800005F4E061090A104D6B5C4568DD4085604A
:100690000A4D6D6805F46051C90A0B4D6B5C4568E5
:1006A000DD40C560054D6D6805F44041890B074D7F
:1006B0006B5CC568B5FBF3F5056130BD0010024009
:1006C00000127A0000093D002000002030000020C8
:1006D00010B500F001F810BD0CB50020019000909D
:1006E0003348006840F480303149086000BF30482A
:1006F000006800F4003000900198401C01900098C0
:1007000018B90198B0F5A06FF1D12948006800F43C
:10071000003010B10120009001E00020009000980E
:10072000012843D12348006840F0100021490860A7
:100730000846006820F0070008600846006840F09E
:10074000020008601A484068194948600846406835
:1007500048600846406840F4806048600846406849
:1007600020F47C1048600846406840F4E810486077
:100770000846006840F08070086000BF0C480068C0
:1007800000F000700028F9D00948406820F003000C
:10079000074948600846406840F00200486000BFD2
:1007A0000348406800F00C000828F9D10CBD000097
:1007B00000100240002002400448006820B10348B5
:1007C0000068401E014908607047000008000020D2
:1007D00010B5002100200022214B5B6803F00C01C2
:1007E00021B1042906D0082928D107E01D4B1E4C51
:1007F000236027E01B4B1C4C236023E0184B5B68F5
:1008000003F47010164B5B6803F48032022303EB91
:10081000904022B9154B4343134C23600DE0104B1D
:100820005B6803F4003323B1104B43430E4C236049
:1008300003E00C4B43430C4C236003E0094B0A4C90
:10084000236000BF00BF064B5B68C3F30313084C73
:10085000E15C054B1B68CB40034C236010BD0000DE
:100860000010024000127A000C00002000093D0038
:100870001000002010B51348006840F00100114935
:10088000086008464068104908400E49486008461C
:1008900000680E4908400B4908600846006820F4CB
:1008A000802008600846406820F4FE0048604FF44D
:1008B0001F008860FFF70CFF4FF0006004490860DC
:1008C00010BD0000001002400000FFF8FFFFF6FE20
:1008D00008ED00E070B505460C46224629460B4857
:1008E000FFF760FE3CB900BF09490848FFF789FDE2
:1008F0000028F9D008E0012C06D100BF05490348C3
:10090000FFF77FFD0028F9D070BD000000580040BF
:10091000820007000200030000B585B001218805B0
:10092000FFF74CFE164801900020ADF808004BF68A
:10093000FF70ADF80A000020ADF80C00ADF80E0015
:100940004FF48040ADF8100001A90E48FFF7B0FD4C
:1009500001210C48FFF76AFD01210820FFF73EFE48
:100960004FF44060ADF800001C208DF80300022019
:100970008DF8020069460448FFF7ACFC05B000BDE5
:10098000A086010000580040000C014070B50446EC
:100990000D4600F01FF86106080E0121FFF79AFFCF
:1009A00000F004F8287000F02FF870BD10B5002199
:1009B0000648FFF71AFD00BF05490448FFF721FD6F
:1009C0000028F9D00148FFF7E9FD10BD00580040AC
:1009D0004000030010B500BF4FF400310848FFF796
:1009E00049FD0028F8D101210548FFF72BFD00BF84
:1009F00004490348FFF705FD0028F9D010BD0000A9
:100A0000005800400100030010B501210548FFF720
:100A100025FD00BF04490348FFF72CFD0028F9D14C
:100A200010BD0000005800401000001010B5044632
:100A300021460548FFF7BFFD00BF04490248FFF704
:100A4000E0FC0028F9D010BD0058004084000700E9
:100A500070B504460D46FFF7BDFF6106080E002184
:100A6000FFF738FF2846FFF7E1FFFFF7CDFF70BD26
:100A700010B5012000F0C6F910BD10B5062000F039
:100A8000C1F910BD10B500F029F910BD10B504462C
:100A9000FFF7D8FB01210820FFF7A0FD012104206A
:100AA000FFF79CFD4FF46040274908801020C87074
:100AB000022088702548FFF70DFC4FF47060224932
:100AC00008801020C870022088702148FFF702FCBF
:100AD0004FF47A50FFF7F4FB4FF400701C491031CB
:100AE00008604010086000F0E9F841F28830FFF734
:100AF000E7FB00F0E3F84020FFF7E2FB00F0DEF850
:100B00004020FFF7DDFB4FF4007011491031086001
:100B10004010091D086000F0D1F84020FFF7D0FB1D
:100B2000282000F06FF9082000F06CF9FFF7A0FF13
:100B3000FFF7A3FF074804700146097841F0080059
:100B400000F060F910BD000004000020000C01401E
:100B5000000801400200002070B50546402D01DA72
:100B6000402400E0002444F0800000F04BF970BD08
:100B700070B50546FFF786FF04460A2D03D12046CF
:100B8000FFF7EAFF0FE0102C04D10021C02000F095
:100B9000B5F805E0502C03D10021802000F0AEF81C
:100BA000284600F038F970BD10B5044603E014F88B
:100BB000010BFFF7DDFF20780028F8D110BD000001
:100BC00070B5054600244FF480403949086015B1DE
:100BD0004010086004E04FF400503549091D0860DA
:100BE0004FF47060334908804820C8700220887034
:100BF0003148FFF76FFB4FF400402D490860022099
:100C0000FFF75EFB2C480830006800F4807008B1E4
:100C100044F0100428480830006800F4007008B15F
:100C200044F0200424480830006800F4806008B1D3
:100C300044F0400420480830006800F4006008B127
:100C400044F080044FF400401949091D0860022057
:100C5000FFF736FB4FF40040154908600220FFF70C
:100C60002FFB15480830006800F4807008B144F08C
:100C7000010411480830006800F4007008B144F025
:100C800002040D480830006800F4806008B144F0A8
:100C9000040409480830006800F4006008B144F01A
:100CA00008044FF400400249091D0860204670BD49
:100CB000100C0140040000200008014010B54FF462
:100CC0000040054908600220FFF7FAFA4FF400409F
:100CD0000149091D086010BD100C014010B500BF8E
:100CE0000020FFF76DFF00F080000028F8D10420FD
:100CF000FFF7E6FA0020FFF763FF10BD70B504466A
:100D00000D464FF480403C4908601DB14010091F5A
:100D1000086003E04FF40050374908604FF47060FA
:100D2000364908801020C870022088703448FFF7C8
:100D3000D1FA4FF400603249143108604010086065
:100D4000401008604010086004F0800010B1C81422
:100D5000091F086004F0400020B14FF4806028496A
:100D60001031086004F0200020B14FF400702449D5
:100D70001031086004F0100020B14FF48070204959
:100D800010310860FFF79AFF4FF400601C491431DE
:100D9000086040100860401008604010086004F0CF
:100DA000080010B1C814091F086004F0040020B145
:100DB0004FF4806012491031086004F0020020B145
:100DC0004FF400700E491031086004F0010020B1AA
:100DD0004FF480700A4910310860FFF76FFF4FF43D
:100DE000006007491031086040100860401008603A
:100DF0004010086070BD0000140C01400400002089
:100E00000008014010B50446FFF768FF00212046A6
:100E1000FFF774FF10BD10B50446FFF75FFF012117
:100E20002046FFF76BFF10BDFFF70CFA0420FFF719
:100E30002DFEFFF771FD3DE001210820FFF708FEC0
:100E40000520FFF731FA1C490820FFF79FFDFFF747
:100E50000FFE1948007818B918A0FFF7A5FE06E0A4
:100E600015480078012802D119A0FFF79DFE40F631
:100E7000C410FFF719FA00210820FFF7E9FD05204B
:100E8000FFF712FA0C490820FFF780FDFFF7F0FD8D
:100E90000948007818B909A0FFF786FE06E0064861
:100EA0000078012802D10AA0FFF77EFE40F6C410A8
:100EB000FFF7FAF9C0E70000000000204C4544208D
:100EC000426C696E6B696E67204F666600000000B9
:100ED0004C454420426C696E6B696E67204F6E0012
:100EE000000F000800000020340000002801000866
:100EF000340F00083400002064060000440100089C
:100F000000000000000000000000000000A24A04F1
:100F100000000000000000000102030406070809A9
:100F2000000000000102030401020304060708098F
:040F300002040608A9
:04000005080000ED02
:00000001FF
